{
  "contractName": "Gallery",
  "abi": [
    {
      "constant": true,
      "inputs": [
        {
          "name": "",
          "type": "bytes32"
        }
      ],
      "name": "gallery",
      "outputs": [
        {
          "name": "hashValue",
          "type": "bytes32"
        },
        {
          "name": "name",
          "type": "string"
        },
        {
          "name": "access",
          "type": "string"
        }
      ],
      "payable": false,
      "stateMutability": "view",
      "type": "function",
      "signature": "0x360e09f0"
    },
    {
      "constant": true,
      "inputs": [],
      "name": "artworksCount",
      "outputs": [
        {
          "name": "",
          "type": "uint256"
        }
      ],
      "payable": false,
      "stateMutability": "view",
      "type": "function",
      "signature": "0xc2a8dc7e"
    },
    {
      "inputs": [],
      "payable": false,
      "stateMutability": "nonpayable",
      "type": "constructor",
      "signature": "constructor"
    },
    {
      "constant": false,
      "inputs": [
        {
          "name": "_name",
          "type": "string"
        },
        {
          "name": "user_id",
          "type": "uint256"
        },
        {
          "name": "image_id",
          "type": "uint256"
        }
      ],
      "name": "addArtwork",
      "outputs": [],
      "payable": false,
      "stateMutability": "nonpayable",
      "type": "function",
      "signature": "0x85a79e4f"
    },
    {
      "constant": false,
      "inputs": [
        {
          "name": "user_id",
          "type": "uint256"
        },
        {
          "name": "image_id",
          "type": "uint256"
        }
      ],
      "name": "retrieveArtwork",
      "outputs": [
        {
          "components": [
            {
              "name": "hashValue",
              "type": "bytes32"
            },
            {
              "name": "name",
              "type": "string"
            },
            {
              "name": "access",
              "type": "string"
            },
            {
              "name": "previousA",
              "type": "uint256[]"
            },
            {
              "name": "futureA",
              "type": "uint256[]"
            }
          ],
          "name": "a",
          "type": "tuple"
        }
      ],
      "payable": false,
      "stateMutability": "nonpayable",
      "type": "function",
      "signature": "0x540cf5c6"
    },
    {
      "constant": false,
      "inputs": [
        {
          "name": "user_id",
          "type": "uint256"
        },
        {
          "name": "image_id",
          "type": "uint256"
        }
      ],
      "name": "retrieveArtworkName",
      "outputs": [
        {
          "name": "a",
          "type": "string"
        }
      ],
      "payable": false,
      "stateMutability": "nonpayable",
      "type": "function",
      "signature": "0x606f787c"
    }
  ],
  "bytecode": "0x60806040523480156200001157600080fd5b50620000656040805190810160405280600781526020017f646156696e63690000000000000000000000000000000000000000000000000081525060016003620000be640100000000026401000000009004565b620000b86040805190810160405280600881526020017f4d6f6e614c69736100000000000000000000000000000000000000000000000081525060016002620000be640100000000026401000000009004565b62000307565b600080815480929190600101919050555060608060008484604051602001808381526020018281526020019250505060405160208183030381529060405280519060200120905060a0604051908101604052808281526020018781526020016040805190810160405280600581526020017f3132333435000000000000000000000000000000000000000000000000000000815250815260200184815260200183815250600160008381526020019081526020016000206000820151816000015560208201518160010190805190602001906200019d92919062000206565b506040820151816002019080519060200190620001bc92919062000206565b506060820151816003019080519060200190620001db9291906200028d565b506080820151816004019080519060200190620001fa9291906200028d565b50905050505050505050565b828054600181600116156101000203166002900490600052602060002090601f016020900481019282601f106200024957805160ff19168380011785556200027a565b828001600101855582156200027a579182015b82811115620002795782518255916020019190600101906200025c565b5b509050620002899190620002df565b5090565b828054828255906000526020600020908101928215620002cc579160200282015b82811115620002cb578251825591602001919060010190620002ae565b5b509050620002db9190620002df565b5090565b6200030491905b8082111562000300576000816000905550600101620002e6565b5090565b90565b610d3980620003176000396000f3fe60806040526004361061006d576000357c0100000000000000000000000000000000000000000000000000000000900463ffffffff168063360e09f014610072578063540cf5c6146100b1578063606f787c146100ee57806385a79e4f1461012b578063c2a8dc7e14610154575b600080fd5b34801561007e57600080fd5b5061009960048036036100949190810190610910565b61017f565b6040516100a893929190610b4c565b60405180910390f35b3480156100bd57600080fd5b506100d860048036036100d391908101906109a0565b6102d9565b6040516100e59190610bb3565b60405180910390f35b3480156100fa57600080fd5b50610115600480360361011091908101906109a0565b61053a565b6040516101229190610b91565b60405180910390f35b34801561013757600080fd5b50610152600480360361014d9190810190610939565b610627565b005b34801561016057600080fd5b50610169610767565b6040516101769190610bd5565b60405180910390f35b6001602052806000526040600020600091509050806000015490806001018054600181600116156101000203166002900480601f0160208091040260200160405190810160405280929190818152602001828054600181600116156101000203166002900480156102315780601f1061020657610100808354040283529160200191610231565b820191906000526020600020905b81548152906001019060200180831161021457829003601f168201915b505050505090806002018054600181600116156101000203166002900480601f0160208091040260200160405190810160405280929190818152602001828054600181600116156101000203166002900480156102cf5780601f106102a4576101008083540402835291602001916102cf565b820191906000526020600020905b8154815290600101906020018083116102b257829003601f168201915b5050505050905083565b6102e161076d565b6000838360405160200180838152602001828152602001925050506040516020818303038152906040528051906020012090506001600082815260200190815260200160002060a0604051908101604052908160008201548152602001600182018054600181600116156101000203166002900480601f0160208091040260200160405190810160405280929190818152602001828054600181600116156101000203166002900480156103d65780601f106103ab576101008083540402835291602001916103d6565b820191906000526020600020905b8154815290600101906020018083116103b957829003601f168201915b50505050508152602001600282018054600181600116156101000203166002900480601f0160208091040260200160405190810160405280929190818152602001828054600181600116156101000203166002900480156104785780601f1061044d57610100808354040283529160200191610478565b820191906000526020600020905b81548152906001019060200180831161045b57829003601f168201915b50505050508152602001600382018054806020026020016040519081016040528092919081815260200182805480156104d057602002820191906000526020600020905b8154815260200190600101908083116104bc575b505050505081526020016004820180548060200260200160405190810160405280929190818152602001828054801561052857602002820191906000526020600020905b815481526020019060010190808311610514575b50505050508152505091505092915050565b6060600083836040516020018083815260200182815260200192505050604051602081830303815290604052805190602001209050600160008281526020019081526020016000206001018054600181600116156101000203166002900480601f0160208091040260200160405190810160405280929190818152602001828054600181600116156101000203166002900480156106195780601f106105ee57610100808354040283529160200191610619565b820191906000526020600020905b8154815290600101906020018083116105fc57829003601f168201915b505050505091505092915050565b600080815480929190600101919050555060608060008484604051602001808381526020018281526020019250505060405160208183030381529060405280519060200120905060a0604051908101604052808281526020018781526020016040805190810160405280600581526020017f3132333435000000000000000000000000000000000000000000000000000000815250815260200184815260200183815250600160008381526020019081526020016000206000820151816000015560208201518160010190805190602001906107049291906107a0565b5060408201518160020190805190602001906107219291906107a0565b50606082015181600301908051906020019061073e929190610820565b50608082015181600401908051906020019061075b929190610820565b50905050505050505050565b60005481565b60a06040519081016040528060008019168152602001606081526020016060815260200160608152602001606081525090565b828054600181600116156101000203166002900490600052602060002090601f016020900481019282601f106107e157805160ff191683800117855561080f565b8280016001018555821561080f579182015b8281111561080e5782518255916020019190600101906107f3565b5b50905061081c919061086d565b5090565b82805482825590600052602060002090810192821561085c579160200282015b8281111561085b578251825591602001919060010190610840565b5b509050610869919061086d565b5090565b61088f91905b8082111561088b576000816000905550600101610873565b5090565b90565b600061089e8235610c98565b905092915050565b600082601f83011215156108b957600080fd5b81356108cc6108c782610c1d565b610bf0565b915080825260208301602083018583830111156108e857600080fd5b6108f3838284610cac565b50505092915050565b60006109088235610ca2565b905092915050565b60006020828403121561092257600080fd5b600061093084828501610892565b91505092915050565b60008060006060848603121561094e57600080fd5b600084013567ffffffffffffffff81111561096857600080fd5b610974868287016108a6565b9350506020610985868287016108fc565b9250506040610996868287016108fc565b9150509250925092565b600080604083850312156109b357600080fd5b60006109c1858286016108fc565b92505060206109d2858286016108fc565b9150509250929050565b60006109e782610c56565b8084526020840193506109f983610c49565b60005b82811015610a2b57610a0f868351610b3d565b610a1882610c77565b91506020860195506001810190506109fc565b50849250505092915050565b610a4081610c84565b82525050565b6000610a5182610c6c565b808452610a65816020860160208601610cbb565b610a6e81610cee565b602085010191505092915050565b6000610a8782610c61565b808452610a9b816020860160208601610cbb565b610aa481610cee565b602085010191505092915050565b600060a083016000830151610aca6000860182610a37565b5060208301518482036020860152610ae28282610a7c565b91505060408301518482036040860152610afc8282610a7c565b91505060608301518482036060860152610b1682826109dc565b91505060808301518482036080860152610b3082826109dc565b9150508091505092915050565b610b4681610c8e565b82525050565b6000606082019050610b616000830186610a37565b8181036020830152610b738185610a7c565b90508181036040830152610b878184610a7c565b9050949350505050565b60006020820190508181036000830152610bab8184610a46565b905092915050565b60006020820190508181036000830152610bcd8184610ab2565b905092915050565b6000602082019050610bea6000830184610b3d565b92915050565b6000604051905081810181811067ffffffffffffffff82111715610c1357600080fd5b8060405250919050565b600067ffffffffffffffff821115610c3457600080fd5b601f19601f8301169050602081019050919050565b6000602082019050919050565b600081519050919050565b600081519050919050565b600081519050919050565b6000602082019050919050565b6000819050919050565b6000819050919050565b6000819050919050565b6000819050919050565b82818337600083830152505050565b60005b83811015610cd9578082015181840152602081019050610cbe565b83811115610ce8576000848401525b50505050565b6000601f19601f830116905091905056fea265627a7a7230582035832ca59bed8ca329497632970198ee1a7ef5c764f5c60030edd497548031d66c6578706572696d656e74616cf50037",
  "source": "pragma solidity 0.5.0;\npragma experimental ABIEncoderV2;\n\ncontract Gallery {\n  // counter\n  uint public artworksCount;\n\n  struct Artwork {\n    bytes32 hashValue;\n    string name;\n    string access;\n    //store other works in form of image_id that references to Mongo\n    uint[] previousA;\n    uint[] futureA;\n  }\n\n  // Read/write Artwork\n  // a hash table mapping hash(user_id, image_id) to Artwork\n  mapping(bytes32 => Artwork) public gallery;\n\n\n  constructor() public {\n    addArtwork(\"daVinci\", 1, 3);\n    addArtwork(\"MonaLisa\", 1, 2);\n  }\n\n  function addArtwork (string memory _name, uint user_id, uint image_id) public {\n    artworksCount ++;\n    uint[] memory previous;\n    uint[] memory future;\n    bytes32 hashV = keccak256(abi.encodePacked(user_id, image_id));\n    gallery[hashV] = Artwork(hashV, _name, \"12345\", previous, future);\n  }\n\n  function retrieveArtwork (uint user_id, uint image_id) public returns(Artwork memory a) {\n    bytes32 hashV = keccak256(abi.encodePacked(user_id, image_id));\n    return gallery[hashV];\n  }\n\n  function retrieveArtworkName (uint user_id, uint image_id) public returns(string memory a) {\n    bytes32 hashV = keccak256(abi.encodePacked(user_id, image_id));\n    return gallery[hashV].name;\n  }\n}\n",
  "sourcePath": "/Users/VanessaY/Codes/FYPdemo/decentral_app/contracts/Gallery.sol",
  "compiler": {
    "name": "solc",
    "version": "0.5.0+commit.1d4f565a.Emscripten.clang"
  },
  "schemaVersion": "3.0.0",
  "updatedAt": "2019-01-03T18:37:08.505Z",
  "devdoc": {
    "methods": {}
  },
  "userdoc": {
    "methods": {}
  }
}