{
  "contractName": "Gallery",
  "abi": [
    {
      "constant": true,
      "inputs": [
        {
          "name": "",
          "type": "bytes32"
        }
      ],
      "name": "gallery",
      "outputs": [
        {
          "name": "hashValue",
          "type": "bytes32"
        },
        {
          "name": "name",
          "type": "string"
        },
        {
          "name": "accessL",
          "type": "string"
        }
      ],
      "payable": false,
      "stateMutability": "view",
      "type": "function",
      "signature": "0x360e09f0"
    },
    {
      "constant": true,
      "inputs": [],
      "name": "artworksCount",
      "outputs": [
        {
          "name": "",
          "type": "uint256"
        }
      ],
      "payable": false,
      "stateMutability": "view",
      "type": "function",
      "signature": "0xc2a8dc7e"
    },
    {
      "inputs": [],
      "payable": false,
      "stateMutability": "nonpayable",
      "type": "constructor",
      "signature": "constructor"
    },
    {
      "constant": false,
      "inputs": [
        {
          "name": "_name",
          "type": "string"
        },
        {
          "name": "accessL",
          "type": "string"
        },
        {
          "name": "user_id",
          "type": "uint256"
        },
        {
          "name": "image_id",
          "type": "uint256"
        }
      ],
      "name": "addArtwork",
      "outputs": [],
      "payable": false,
      "stateMutability": "nonpayable",
      "type": "function",
      "signature": "0xe6b2a4b5"
    },
    {
      "constant": false,
      "inputs": [
        {
          "name": "user_id",
          "type": "uint256"
        },
        {
          "name": "image_id",
          "type": "uint256"
        }
      ],
      "name": "retrieveArtwork",
      "outputs": [
        {
          "name": "_name",
          "type": "string"
        },
        {
          "name": "accessL",
          "type": "string"
        },
        {
          "name": "previous",
          "type": "uint256[]"
        },
        {
          "name": "future",
          "type": "uint256[]"
        }
      ],
      "payable": false,
      "stateMutability": "nonpayable",
      "type": "function",
      "signature": "0x540cf5c6"
    },
    {
      "constant": false,
      "inputs": [
        {
          "name": "user_id",
          "type": "uint256"
        },
        {
          "name": "image_id",
          "type": "uint256"
        }
      ],
      "name": "retrieveArtworkName",
      "outputs": [
        {
          "name": "a",
          "type": "string"
        }
      ],
      "payable": false,
      "stateMutability": "nonpayable",
      "type": "function",
      "signature": "0x606f787c"
    },
    {
      "constant": false,
      "inputs": [
        {
          "name": "user_id",
          "type": "uint256"
        },
        {
          "name": "image_id",
          "type": "uint256"
        },
        {
          "name": "previous_id",
          "type": "uint256"
        }
      ],
      "name": "addPrevious",
      "outputs": [],
      "payable": false,
      "stateMutability": "nonpayable",
      "type": "function",
      "signature": "0x0a7c5d33"
    },
    {
      "constant": false,
      "inputs": [
        {
          "name": "user_id",
          "type": "uint256"
        },
        {
          "name": "image_id",
          "type": "uint256"
        }
      ],
      "name": "retrievePrevious",
      "outputs": [],
      "payable": false,
      "stateMutability": "nonpayable",
      "type": "function",
      "signature": "0x731f5b2c"
    },
    {
      "constant": false,
      "inputs": [
        {
          "name": "user_id",
          "type": "uint256"
        },
        {
          "name": "image_id",
          "type": "uint256"
        },
        {
          "name": "future_id",
          "type": "uint256"
        }
      ],
      "name": "addFuture",
      "outputs": [],
      "payable": false,
      "stateMutability": "nonpayable",
      "type": "function",
      "signature": "0x3611ed4a"
    },
    {
      "constant": false,
      "inputs": [
        {
          "name": "user_id",
          "type": "uint256"
        },
        {
          "name": "image_id",
          "type": "uint256"
        }
      ],
      "name": "retrieveFuture",
      "outputs": [],
      "payable": false,
      "stateMutability": "nonpayable",
      "type": "function",
      "signature": "0x23fbd81b"
    }
  ],
  "bytecode": "0x60806040523480156200001157600080fd5b506200009b6040805190810160405280600781526020017f646156696e6369000000000000000000000000000000000000000000000000008152506040805190810160405280600881526020017f2e2f64562e6a7067000000000000000000000000000000000000000000000000815250600160036200012a640100000000026401000000009004565b620001246040805190810160405280600881526020017f4d6f6e614c6973610000000000000000000000000000000000000000000000008152506040805190810160405280600881526020017f2e2f6d4c2e6a7067000000000000000000000000000000000000000000000000815250600160026200012a640100000000026401000000009004565b6200033f565b600080815480929190600101919050555060608060008484604051602001808381526020018281526020019250505060405160208183030381529060405280519060200120905060a0604051908101604052808281526020018881526020018781526020018481526020018381525060016000838152602001908152602001600020600082015181600001556020820151816001019080519060200190620001d49291906200023e565b506040820151816002019080519060200190620001f39291906200023e565b50606082015181600301908051906020019062000212929190620002c5565b50608082015181600401908051906020019062000231929190620002c5565b5090505050505050505050565b828054600181600116156101000203166002900490600052602060002090601f016020900481019282601f106200028157805160ff1916838001178555620002b2565b82800160010185558215620002b2579182015b82811115620002b157825182559160200191906001019062000294565b5b509050620002c1919062000317565b5090565b82805482825590600052602060002090810192821562000304579160200282015b8281111562000303578251825591602001919060010190620002e6565b5b50905062000313919062000317565b5090565b6200033c91905b80821115620003385760008160009055506001016200031e565b5090565b90565b610f7c806200034f6000396000f3fe608060405260043610610099576000357c0100000000000000000000000000000000000000000000000000000000900463ffffffff1680630a7c5d331461009e57806323fbd81b146100c7578063360e09f0146100f05780633611ed4a1461012f578063540cf5c614610158578063606f787c14610198578063731f5b2c146101d5578063c2a8dc7e146101fe578063e6b2a4b514610229575b600080fd5b3480156100aa57600080fd5b506100c560048036036100c09190810190610c1c565b610252565b005b3480156100d357600080fd5b506100ee60048036036100e99190810190610be0565b6102cb565b005b3480156100fc57600080fd5b5061011760048036036101129190810190610b24565b610317565b60405161012693929190610d50565b60405180910390f35b34801561013b57600080fd5b5061015660048036036101519190810190610c1c565b610471565b005b34801561016457600080fd5b5061017f600480360361017a9190810190610be0565b6104ea565b60405161018f9493929190610db7565b60405180910390f35b3480156101a457600080fd5b506101bf60048036036101ba9190810190610be0565b610769565b6040516101cc9190610d95565b60405180910390f35b3480156101e157600080fd5b506101fc60048036036101f79190810190610be0565b610856565b005b34801561020a57600080fd5b506102136108a2565b6040516102209190610e18565b60405180910390f35b34801561023557600080fd5b50610250600480360361024b9190810190610b4d565b6108a8565b005b6000838360405160200180838152602001828152602001925050506040516020818303038152906040528051906020012090506001600082815260200190815260200160002060030182908060018154018082558091505090600182039060005260206000200160009091929091909150555050505050565b6000828260405160200180838152602001828152602001925050506040516020818303038152906040528051906020012090506001600082815260200190815260200160002050505050565b6001602052806000526040600020600091509050806000015490806001018054600181600116156101000203166002900480601f0160208091040260200160405190810160405280929190818152602001828054600181600116156101000203166002900480156103c95780601f1061039e576101008083540402835291602001916103c9565b820191906000526020600020905b8154815290600101906020018083116103ac57829003601f168201915b505050505090806002018054600181600116156101000203166002900480601f0160208091040260200160405190810160405280929190818152602001828054600181600116156101000203166002900480156104675780601f1061043c57610100808354040283529160200191610467565b820191906000526020600020905b81548152906001019060200180831161044a57829003601f168201915b5050505050905083565b6000838360405160200180838152602001828152602001925050506040516020818303038152906040528051906020012090506001600082815260200190815260200160002060040182908060018154018082558091505090600182039060005260206000200160009091929091909150555050505050565b60608060608060008686604051602001808381526020018281526020019250505060405160208183030381529060405280519060200120905060016000828152602001908152602001600020600101600160008381526020019081526020016000206002016001600084815260200190815260200160002060030160016000858152602001908152602001600020600401838054600181600116156101000203166002900480601f0160208091040260200160405190810160405280929190818152602001828054600181600116156101000203166002900480156106105780601f106105e557610100808354040283529160200191610610565b820191906000526020600020905b8154815290600101906020018083116105f357829003601f168201915b50505050509350828054600181600116156101000203166002900480601f0160208091040260200160405190810160405280929190818152602001828054600181600116156101000203166002900480156106ac5780601f10610681576101008083540402835291602001916106ac565b820191906000526020600020905b81548152906001019060200180831161068f57829003601f168201915b50505050509250818054806020026020016040519081016040528092919081815260200182805480156106fe57602002820191906000526020600020905b8154815260200190600101908083116106ea575b505050505091508080548060200260200160405190810160405280929190818152602001828054801561075057602002820191906000526020600020905b81548152602001906001019080831161073c575b5050505050905094509450945094505092959194509250565b6060600083836040516020018083815260200182815260200192505050604051602081830303815290604052805190602001209050600160008281526020019081526020016000206001018054600181600116156101000203166002900480601f0160208091040260200160405190810160405280929190818152602001828054600181600116156101000203166002900480156108485780601f1061081d57610100808354040283529160200191610848565b820191906000526020600020905b81548152906001019060200180831161082b57829003601f168201915b505050505091505092915050565b6000828260405160200180838152602001828152602001925050506040516020818303038152906040528051906020012090506001600082815260200190815260200160002050505050565b60005481565b600080815480929190600101919050555060608060008484604051602001808381526020018281526020019250505060405160208183030381529060405280519060200120905060a06040519081016040528082815260200188815260200187815260200184815260200183815250600160008381526020019081526020016000206000820151816000015560208201518160010190805190602001906109509291906109b4565b50604082015181600201908051906020019061096d9291906109b4565b50606082015181600301908051906020019061098a929190610a34565b5060808201518160040190805190602001906109a7929190610a34565b5090505050505050505050565b828054600181600116156101000203166002900490600052602060002090601f016020900481019282601f106109f557805160ff1916838001178555610a23565b82800160010185558215610a23579182015b82811115610a22578251825591602001919060010190610a07565b5b509050610a309190610a81565b5090565b828054828255906000526020600020908101928215610a70579160200282015b82811115610a6f578251825591602001919060010190610a54565b5b509050610a7d9190610a81565b5090565b610aa391905b80821115610a9f576000816000905550600101610a87565b5090565b90565b6000610ab28235610edb565b905092915050565b600082601f8301121515610acd57600080fd5b8135610ae0610adb82610e60565b610e33565b91508082526020830160208301858383011115610afc57600080fd5b610b07838284610eef565b50505092915050565b6000610b1c8235610ee5565b905092915050565b600060208284031215610b3657600080fd5b6000610b4484828501610aa6565b91505092915050565b60008060008060808587031215610b6357600080fd5b600085013567ffffffffffffffff811115610b7d57600080fd5b610b8987828801610aba565b945050602085013567ffffffffffffffff811115610ba657600080fd5b610bb287828801610aba565b9350506040610bc387828801610b10565b9250506060610bd487828801610b10565b91505092959194509250565b60008060408385031215610bf357600080fd5b6000610c0185828601610b10565b9250506020610c1285828601610b10565b9150509250929050565b600080600060608486031215610c3157600080fd5b6000610c3f86828701610b10565b9350506020610c5086828701610b10565b9250506040610c6186828701610b10565b9150509250925092565b6000610c7682610e99565b808452602084019350610c8883610e8c565b60005b82811015610cba57610c9e868351610d41565b610ca782610eba565b9150602086019550600181019050610c8b565b50849250505092915050565b610ccf81610ec7565b82525050565b6000610ce082610eaf565b808452610cf4816020860160208601610efe565b610cfd81610f31565b602085010191505092915050565b6000610d1682610ea4565b808452610d2a816020860160208601610efe565b610d3381610f31565b602085010191505092915050565b610d4a81610ed1565b82525050565b6000606082019050610d656000830186610cc6565b8181036020830152610d778185610d0b565b90508181036040830152610d8b8184610d0b565b9050949350505050565b60006020820190508181036000830152610daf8184610cd5565b905092915050565b60006080820190508181036000830152610dd18187610cd5565b90508181036020830152610de58186610cd5565b90508181036040830152610df98185610c6b565b90508181036060830152610e0d8184610c6b565b905095945050505050565b6000602082019050610e2d6000830184610d41565b92915050565b6000604051905081810181811067ffffffffffffffff82111715610e5657600080fd5b8060405250919050565b600067ffffffffffffffff821115610e7757600080fd5b601f19601f8301169050602081019050919050565b6000602082019050919050565b600081519050919050565b600081519050919050565b600081519050919050565b6000602082019050919050565b6000819050919050565b6000819050919050565b6000819050919050565b6000819050919050565b82818337600083830152505050565b60005b83811015610f1c578082015181840152602081019050610f01565b83811115610f2b576000848401525b50505050565b6000601f19601f830116905091905056fea265627a7a723058207e7d09522eaeb913dc017ecd1eddc3e6b4a1adc0f6290cc7386a607c5f28a6d16c6578706572696d656e74616cf50037",
  "source": "pragma solidity 0.5.0;\npragma experimental ABIEncoderV2;\n\ncontract Gallery {\n  // counter\n  uint public artworksCount;\n\n  struct Artwork {\n    bytes32 hashValue;\n    string name;\n    string accessL;\n    //store other works in form of image_id that references to Mongo\n    uint[] previous;\n    uint[] future;\n  }\n\n  // Read/write Artwork\n  // a hash table mapping hash(user_id, image_id) to Artwork\n  mapping(bytes32 => Artwork) public gallery;\n\n\n  constructor() public {\n    addArtwork(\"daVinci\",\"./dV.jpg\", 1, 3);\n    addArtwork(\"MonaLisa\",\"./mL.jpg\", 1, 2);\n  }\n\n\n  function addArtwork (string memory _name, string memory accessL, uint user_id, uint image_id) public {\n    artworksCount ++;\n    uint[] memory p;\n    uint[] memory f;\n    bytes32 hashV = keccak256(abi.encodePacked(user_id, image_id));\n    gallery[hashV] = Artwork(hashV, _name, accessL, p, f);\n  }\n\n  function retrieveArtwork (uint user_id, uint image_id) public returns(string memory _name, string memory accessL, uint[] memory previous, uint[] memory future) {\n    bytes32 hashV = keccak256(abi.encodePacked(user_id, image_id));\n    return (gallery[hashV].name, gallery[hashV].accessL, gallery[hashV].previous, gallery[hashV].future) ;\n  }\n\n  function retrieveArtworkName (uint user_id, uint image_id) public returns(string memory a) {\n    bytes32 hashV = keccak256(abi.encodePacked(user_id, image_id));\n    return gallery[hashV].name;\n  }\n\n  function addPrevious (uint user_id, uint image_id, uint previous_id) public {\n    bytes32 hashV = keccak256(abi.encodePacked(user_id, image_id));\n    gallery[hashV].previous.push(previous_id);\n  }\n\n  function retrievePrevious (uint user_id, uint image_id) public {\n    bytes32 hashV = keccak256(abi.encodePacked(user_id, image_id));\n    gallery[hashV].previous;\n  }\n\n  function addFuture (uint user_id, uint image_id, uint future_id) public {\n    bytes32 hashV = keccak256(abi.encodePacked(user_id, image_id));\n    gallery[hashV].future.push(future_id);\n  }\n\n  function retrieveFuture (uint user_id, uint image_id) public {\n    bytes32 hashV = keccak256(abi.encodePacked(user_id, image_id));\n    gallery[hashV].future;\n  }\n\n\n\n}\n",
  "sourcePath": "/Users/VanessaY/Codes/FYPdemo/decentral_app/contracts/Gallery.sol",
  "compiler": {
    "name": "solc",
    "version": "0.5.0+commit.1d4f565a.Emscripten.clang"
  },
  "schemaVersion": "3.0.1",
  "updatedAt": "2019-01-04T08:45:36.005Z",
  "devdoc": {
    "methods": {}
  },
  "userdoc": {
    "methods": {}
  }
}