{
  "contractName": "Gallery",
  "abi": [
    {
      "constant": true,
      "inputs": [
        {
          "name": "",
          "type": "bytes32"
        }
      ],
      "name": "gallery",
      "outputs": [
        {
          "name": "hashValue",
          "type": "bytes32"
        },
        {
          "name": "name",
          "type": "string"
        },
        {
          "name": "accessL",
          "type": "string"
        }
      ],
      "payable": false,
      "stateMutability": "view",
      "type": "function",
      "signature": "0x360e09f0"
    },
    {
      "constant": true,
      "inputs": [],
      "name": "artworksCount",
      "outputs": [
        {
          "name": "",
          "type": "uint256"
        }
      ],
      "payable": false,
      "stateMutability": "view",
      "type": "function",
      "signature": "0xc2a8dc7e"
    },
    {
      "inputs": [],
      "payable": false,
      "stateMutability": "nonpayable",
      "type": "constructor",
      "signature": "constructor"
    },
    {
      "constant": false,
      "inputs": [
        {
          "name": "_name",
          "type": "string"
        },
        {
          "name": "accessL",
          "type": "string"
        },
        {
          "name": "user_id",
          "type": "uint256"
        },
        {
          "name": "image_id",
          "type": "uint256"
        }
      ],
      "name": "addArtwork",
      "outputs": [],
      "payable": false,
      "stateMutability": "nonpayable",
      "type": "function",
      "signature": "0xe6b2a4b5"
    },
    {
      "constant": false,
      "inputs": [
        {
          "name": "user_id",
          "type": "uint256"
        },
        {
          "name": "image_id",
          "type": "uint256"
        }
      ],
      "name": "retrieveArtwork",
      "outputs": [
        {
          "name": "i_id",
          "type": "uint256"
        },
        {
          "name": "_name",
          "type": "string"
        },
        {
          "name": "accessL",
          "type": "string"
        },
        {
          "name": "previous",
          "type": "uint256[]"
        },
        {
          "name": "future",
          "type": "uint256[]"
        }
      ],
      "payable": false,
      "stateMutability": "nonpayable",
      "type": "function",
      "signature": "0x540cf5c6"
    },
    {
      "constant": false,
      "inputs": [
        {
          "name": "user_id",
          "type": "uint256"
        },
        {
          "name": "image_id",
          "type": "uint256"
        }
      ],
      "name": "retrieveArtworkInfo",
      "outputs": [
        {
          "name": "u_id",
          "type": "uint256"
        },
        {
          "name": "i_id",
          "type": "uint256"
        },
        {
          "name": "a",
          "type": "string"
        },
        {
          "name": "accessL",
          "type": "string"
        }
      ],
      "payable": false,
      "stateMutability": "nonpayable",
      "type": "function",
      "signature": "0x1e3aeeca"
    },
    {
      "constant": false,
      "inputs": [
        {
          "name": "user_id",
          "type": "uint256"
        },
        {
          "name": "image_id",
          "type": "uint256"
        },
        {
          "name": "previous_id",
          "type": "uint256"
        }
      ],
      "name": "addPrevious",
      "outputs": [],
      "payable": false,
      "stateMutability": "nonpayable",
      "type": "function",
      "signature": "0x0a7c5d33"
    },
    {
      "constant": false,
      "inputs": [
        {
          "name": "user_id",
          "type": "uint256"
        },
        {
          "name": "image_id",
          "type": "uint256"
        }
      ],
      "name": "retrievePrevious",
      "outputs": [
        {
          "name": "previous",
          "type": "uint256[]"
        }
      ],
      "payable": false,
      "stateMutability": "nonpayable",
      "type": "function",
      "signature": "0x731f5b2c"
    },
    {
      "constant": false,
      "inputs": [
        {
          "name": "user_id",
          "type": "uint256"
        },
        {
          "name": "image_id",
          "type": "uint256"
        },
        {
          "name": "future_id",
          "type": "uint256"
        }
      ],
      "name": "addFuture",
      "outputs": [],
      "payable": false,
      "stateMutability": "nonpayable",
      "type": "function",
      "signature": "0x3611ed4a"
    },
    {
      "constant": false,
      "inputs": [
        {
          "name": "user_id",
          "type": "uint256"
        },
        {
          "name": "image_id",
          "type": "uint256"
        }
      ],
      "name": "retrieveFuture",
      "outputs": [
        {
          "name": "future",
          "type": "uint256[]"
        }
      ],
      "payable": false,
      "stateMutability": "nonpayable",
      "type": "function",
      "signature": "0x23fbd81b"
    }
  ],
  "bytecode": "0x60806040523480156200001157600080fd5b506200009b6040805190810160405280600781526020017f646156696e6369000000000000000000000000000000000000000000000000008152506040805190810160405280601181526020017f696d616765732f626f7865722e6a7065670000000000000000000000000000008152506001600062000278640100000000026401000000009004565b620001236040805190810160405280600881526020017f4d6f6e614c6973610000000000000000000000000000000000000000000000008152506040805190810160405280601c81526020017f696d616765732f676f6c64656e2d7265747269657665722e6a7065670000000081525060018062000278640100000000026401000000009004565b620001ab6040805190810160405280600581526020017f50617269730000000000000000000000000000000000000000000000000000008152506040805190810160405280601a81526020017f696d616765732f6672656e63682d62756c6c646f672e6a70656700000000000081525060028062000278640100000000026401000000009004565b620002346040805190810160405280600581526020017f426f7865720000000000000000000000000000000000000000000000000000008152506040805190810160405280601c81526020017f696d616765732f73636f74746973682d746572726965722e6a706567000000008152506001600362000278640100000000026401000000009004565b620002536001600060016200038c640100000000026401000000009004565b620002726001600060026200038c640100000000026401000000009004565b62000506565b600080815480929190600101919050555060608060008484604051602001808381526020018281526020019250505060405160208183030381529060405280519060200120905060a06040519081016040528082815260200188815260200187815260200184815260200183815250600160008381526020019081526020016000206000820151816000015560208201518160010190805190602001906200032292919062000405565b5060408201518160020190805190602001906200034192919062000405565b506060820151816003019080519060200190620003609291906200048c565b5060808201518160040190805190602001906200037f9291906200048c565b5090505050505050505050565b6000838360405160200180838152602001828152602001925050506040516020818303038152906040528051906020012090506001600082815260200190815260200160002060030182908060018154018082558091505090600182039060005260206000200160009091929091909150555050505050565b828054600181600116156101000203166002900490600052602060002090601f016020900481019282601f106200044857805160ff191683800117855562000479565b8280016001018555821562000479579182015b82811115620004785782518255916020019190600101906200045b565b5b509050620004889190620004de565b5090565b828054828255906000526020600020908101928215620004cb579160200282015b82811115620004ca578251825591602001919060010190620004ad565b5b509050620004da9190620004de565b5090565b6200050391905b80821115620004ff576000816000905550600101620004e5565b5090565b90565b61122680620005166000396000f3fe608060405260043610610099576000357c0100000000000000000000000000000000000000000000000000000000900463ffffffff1680630a7c5d331461009e5780631e3aeeca146100ed57806323fbd81b14610225578063360e09f0146102bf5780633611ed4a146103e6578063540cf5c614610435578063731f5b2c146105f6578063c2a8dc7e14610690578063e6b2a4b5146106bb575b600080fd5b3480156100aa57600080fd5b506100eb600480360360608110156100c157600080fd5b8101908080359060200190929190803590602001909291908035906020019092919050505061082e565b005b3480156100f957600080fd5b506101306004803603604081101561011057600080fd5b8101908080359060200190929190803590602001909291905050506108a7565b604051808581526020018481526020018060200180602001838103835285818151815260200191508051906020019080838360005b83811015610180578082015181840152602081019050610165565b50505050905090810190601f1680156101ad5780820380516001836020036101000a031916815260200191505b50838103825284818151815260200191508051906020019080838360005b838110156101e65780820151818401526020810190506101cb565b50505050905090810190601f1680156102135780820380516001836020036101000a031916815260200191505b50965050505050505060405180910390f35b34801561023157600080fd5b506102686004803603604081101561024857600080fd5b810190808035906020019092919080359060200190929190505050610a58565b6040518080602001828103825283818151815260200191508051906020019060200280838360005b838110156102ab578082015181840152602081019050610290565b505050509050019250505060405180910390f35b3480156102cb57600080fd5b506102f8600480360360208110156102e257600080fd5b8101908080359060200190929190505050610afb565b604051808481526020018060200180602001838103835285818151815260200191508051906020019080838360005b83811015610342578082015181840152602081019050610327565b50505050905090810190601f16801561036f5780820380516001836020036101000a031916815260200191505b50838103825284818151815260200191508051906020019080838360005b838110156103a857808201518184015260208101905061038d565b50505050905090810190601f1680156103d55780820380516001836020036101000a031916815260200191505b509550505050505060405180910390f35b3480156103f257600080fd5b506104336004803603606081101561040957600080fd5b81019080803590602001909291908035906020019092919080359060200190929190505050610c55565b005b34801561044157600080fd5b506104786004803603604081101561045857600080fd5b810190808035906020019092919080359060200190929190505050610cce565b6040518086815260200180602001806020018060200180602001858103855289818151815260200191508051906020019080838360005b838110156104ca5780820151818401526020810190506104af565b50505050905090810190601f1680156104f75780820380516001836020036101000a031916815260200191505b50858103845288818151815260200191508051906020019080838360005b83811015610530578082015181840152602081019050610515565b50505050905090810190601f16801561055d5780820380516001836020036101000a031916815260200191505b50858103835287818151815260200191508051906020019060200280838360005b8381101561059957808201518184015260208101905061057e565b50505050905001858103825286818151815260200191508051906020019060200280838360005b838110156105db5780820151818401526020810190506105c0565b50505050905001995050505050505050505060405180910390f35b34801561060257600080fd5b506106396004803603604081101561061957600080fd5b810190808035906020019092919080359060200190929190505050610f53565b6040518080602001828103825283818151815260200191508051906020019060200280838360005b8381101561067c578082015181840152602081019050610661565b505050509050019250505060405180910390f35b34801561069c57600080fd5b506106a5610ff6565b6040518082815260200191505060405180910390f35b3480156106c757600080fd5b5061082c600480360360808110156106de57600080fd5b81019080803590602001906401000000008111156106fb57600080fd5b82018360208201111561070d57600080fd5b8035906020019184600183028401116401000000008311171561072f57600080fd5b91908080601f016020809104026020016040519081016040528093929190818152602001838380828437600081840152601f19601f8201169050808301925050505050505091929192908035906020019064010000000081111561079257600080fd5b8201836020820111156107a457600080fd5b803590602001918460018302840111640100000000831117156107c657600080fd5b91908080601f016020809104026020016040519081016040528093929190818152602001838380828437600081840152601f19601f8201169050808301925050505050505091929192908035906020019092919080359060200190929190505050610ffc565b005b6000838360405160200180838152602001828152602001925050506040516020818303038152906040528051906020012090506001600082815260200190815260200160002060030182908060018154018082558091505090600182039060005260206000200160009091929091909150555050505050565b60008060608060008686604051602001808381526020018281526020019250505060405160208183030381529060405280519060200120905086866001600084815260200190815260200160002060010160016000858152602001908152602001600020600201818054600181600116156101000203166002900480601f0160208091040260200160405190810160405280929190818152602001828054600181600116156101000203166002900480156109a35780601f10610978576101008083540402835291602001916109a3565b820191906000526020600020905b81548152906001019060200180831161098657829003601f168201915b50505050509150808054600181600116156101000203166002900480601f016020809104026020016040519081016040528092919081815260200182805460018160011615610100020316600290048015610a3f5780601f10610a1457610100808354040283529160200191610a3f565b820191906000526020600020905b815481529060010190602001808311610a2257829003601f168201915b5050505050905094509450945094505092959194509250565b606060008383604051602001808381526020018281526020019250505060405160208183030381529060405280519060200120905060016000828152602001908152602001600020600401805480602002602001604051908101604052809291908181526020018280548015610aed57602002820191906000526020600020905b815481526020019060010190808311610ad9575b505050505091505092915050565b6001602052806000526040600020600091509050806000015490806001018054600181600116156101000203166002900480601f016020809104026020016040519081016040528092919081815260200182805460018160011615610100020316600290048015610bad5780601f10610b8257610100808354040283529160200191610bad565b820191906000526020600020905b815481529060010190602001808311610b9057829003601f168201915b505050505090806002018054600181600116156101000203166002900480601f016020809104026020016040519081016040528092919081815260200182805460018160011615610100020316600290048015610c4b5780601f10610c2057610100808354040283529160200191610c4b565b820191906000526020600020905b815481529060010190602001808311610c2e57829003601f168201915b5050505050905083565b6000838360405160200180838152602001828152602001925050506040516020818303038152906040528051906020012090506001600082815260200190815260200160002060040182908060018154018082558091505090600182039060005260206000200160009091929091909150555050505050565b60006060806060806000878760405160200180838152602001828152602001925050506040516020818303038152906040528051906020012090508660016000838152602001908152602001600020600101600160008481526020019081526020016000206002016001600085815260200190815260200160002060030160016000868152602001908152602001600020600401838054600181600116156101000203166002900480601f016020809104026020016040519081016040528092919081815260200182805460018160011615610100020316600290048015610df75780601f10610dcc57610100808354040283529160200191610df7565b820191906000526020600020905b815481529060010190602001808311610dda57829003601f168201915b50505050509350828054600181600116156101000203166002900480601f016020809104026020016040519081016040528092919081815260200182805460018160011615610100020316600290048015610e935780601f10610e6857610100808354040283529160200191610e93565b820191906000526020600020905b815481529060010190602001808311610e7657829003601f168201915b5050505050925081805480602002602001604051908101604052809291908181526020018280548015610ee557602002820191906000526020600020905b815481526020019060010190808311610ed1575b5050505050915080805480602002602001604051908101604052809291908181526020018280548015610f3757602002820191906000526020600020905b815481526020019060010190808311610f23575b5050505050905095509550955095509550509295509295909350565b606060008383604051602001808381526020018281526020019250505060405160208183030381529060405280519060200120905060016000828152602001908152602001600020600301805480602002602001604051908101604052809291908181526020018280548015610fe857602002820191906000526020600020905b815481526020019060010190808311610fd4575b505050505091505092915050565b60005481565b600080815480929190600101919050555060608060008484604051602001808381526020018281526020019250505060405160208183030381529060405280519060200120905060a06040519081016040528082815260200188815260200187815260200184815260200183815250600160008381526020019081526020016000206000820151816000015560208201518160010190805190602001906110a4929190611108565b5060408201518160020190805190602001906110c1929190611108565b5060608201518160030190805190602001906110de929190611188565b5060808201518160040190805190602001906110fb929190611188565b5090505050505050505050565b828054600181600116156101000203166002900490600052602060002090601f016020900481019282601f1061114957805160ff1916838001178555611177565b82800160010185558215611177579182015b8281111561117657825182559160200191906001019061115b565b5b50905061118491906111d5565b5090565b8280548282559060005260206000209081019282156111c4579160200282015b828111156111c35782518255916020019190600101906111a8565b5b5090506111d191906111d5565b5090565b6111f791905b808211156111f35760008160009055506001016111db565b5090565b9056fea165627a7a72305820b4830852f09235a1e38b828a1ef11112775ac7e4ba333c1a5f9dae72b1eef1280029",
  "source": "pragma solidity 0.5.0;\n\ncontract Gallery {\n  // counter\n  uint public artworksCount;\n\n  struct Artwork {\n    bytes32 hashValue;\n    string name;\n    string accessL;\n    //store other works in form of image_id that references to Mongo\n    uint[] previous;\n    uint[] future;\n  }\n\n  // Read/write Artwork\n  // a hash table mapping hash(user_id, image_id) to Artwork\n  mapping(bytes32 => Artwork) public gallery;\n\n\n  constructor() public {\n    addArtwork(\"daVinci\",\"images/boxer.jpeg\", 1, 0);\n    addArtwork(\"MonaLisa\",\"images/golden-retriever.jpeg\", 1, 1);\n    addArtwork(\"Paris\", \"images/french-bulldog.jpeg\", 2, 2);\n    addArtwork(\"Boxer\", \"images/scottish-terrier.jpeg\", 1, 3);\n    addPrevious(1,0,1);\n    addPrevious(1,0,2);\n  }\n\n\n  function addArtwork (string memory _name, string memory accessL, uint user_id, uint image_id) public {\n    artworksCount ++;\n    uint[] memory p;\n    uint[] memory f;\n    bytes32 hashV = keccak256(abi.encodePacked(user_id, image_id));\n    gallery[hashV] = Artwork(hashV, _name, accessL, p, f);\n  }\n\n  function retrieveArtwork (uint user_id, uint image_id) public returns(uint i_id, string memory _name, string memory accessL, uint[] memory previous, uint[] memory future) {\n    bytes32 hashV = keccak256(abi.encodePacked(user_id, image_id));\n    return (image_id, gallery[hashV].name, gallery[hashV].accessL, gallery[hashV].previous, gallery[hashV].future) ;\n  }\n\n  function retrieveArtworkInfo (uint user_id, uint image_id) public returns(uint u_id, uint i_id,string memory a, string memory accessL) {\n    bytes32 hashV = keccak256(abi.encodePacked(user_id, image_id));\n    return (user_id, image_id, gallery[hashV].name, gallery[hashV].accessL);\n  }\n\n  function addPrevious (uint user_id, uint image_id, uint previous_id) public {\n    bytes32 hashV = keccak256(abi.encodePacked(user_id, image_id));\n    gallery[hashV].previous.push(previous_id);\n  }\n\n  function retrievePrevious (uint user_id, uint image_id) public returns(uint[] memory previous){\n    bytes32 hashV = keccak256(abi.encodePacked(user_id, image_id));\n    return gallery[hashV].previous;\n  }\n\n  function addFuture (uint user_id, uint image_id, uint future_id) public {\n    bytes32 hashV = keccak256(abi.encodePacked(user_id, image_id));\n    gallery[hashV].future.push(future_id);\n  }\n\n  function retrieveFuture (uint user_id, uint image_id) public returns (uint[] memory future) {\n    bytes32 hashV = keccak256(abi.encodePacked(user_id, image_id));\n    return gallery[hashV].future;\n  }\n\n\n\n}\n",
  "sourcePath": "/Users/VanessaY/Codes/FYPdemo/decentral_app/contracts/Gallery.sol",
  "compiler": {
    "name": "solc",
    "version": "0.5.0+commit.1d4f565a.Emscripten.clang"
  },
  "schemaVersion": "3.0.1",
  "updatedAt": "2019-01-09T11:16:27.521Z",
  "devdoc": {
    "methods": {}
  },
  "userdoc": {
    "methods": {}
  }
}