{
  "contractName": "Gallery",
  "abi": [
    {
      "constant": true,
      "inputs": [
        {
          "name": "",
          "type": "bytes32"
        }
      ],
      "name": "gallery",
      "outputs": [
        {
          "name": "hashValue",
          "type": "bytes32"
        },
        {
          "name": "name",
          "type": "string"
        },
        {
          "name": "caption",
          "type": "string"
        },
        {
          "name": "access",
          "type": "string"
        }
      ],
      "payable": false,
      "stateMutability": "view",
      "type": "function",
      "signature": "0x360e09f0"
    },
    {
      "constant": true,
      "inputs": [],
      "name": "artworksCount",
      "outputs": [
        {
          "name": "",
          "type": "uint256"
        }
      ],
      "payable": false,
      "stateMutability": "view",
      "type": "function",
      "signature": "0xc2a8dc7e"
    },
    {
      "inputs": [],
      "payable": false,
      "stateMutability": "nonpayable",
      "type": "constructor",
      "signature": "constructor"
    },
    {
      "constant": false,
      "inputs": [
        {
          "name": "user_id",
          "type": "bytes32"
        },
        {
          "name": "image_id",
          "type": "bytes32"
        },
        {
          "name": "_name",
          "type": "string"
        },
        {
          "name": "caption",
          "type": "string"
        },
        {
          "name": "access",
          "type": "string"
        }
      ],
      "name": "addArtwork",
      "outputs": [],
      "payable": false,
      "stateMutability": "nonpayable",
      "type": "function",
      "signature": "0xb78826c1"
    },
    {
      "constant": false,
      "inputs": [
        {
          "name": "u_id",
          "type": "bytes32"
        },
        {
          "name": "i_id",
          "type": "bytes32"
        }
      ],
      "name": "retrieveArtwork",
      "outputs": [
        {
          "name": "",
          "type": "bytes32"
        },
        {
          "name": "",
          "type": "bytes32"
        },
        {
          "name": "",
          "type": "string"
        },
        {
          "name": "",
          "type": "string"
        }
      ],
      "payable": false,
      "stateMutability": "nonpayable",
      "type": "function",
      "signature": "0xb915f551"
    },
    {
      "constant": false,
      "inputs": [
        {
          "name": "u_id",
          "type": "bytes32"
        },
        {
          "name": "i_id",
          "type": "bytes32"
        }
      ],
      "name": "retrieveArtworkInfo",
      "outputs": [
        {
          "name": "",
          "type": "bytes32"
        },
        {
          "name": "",
          "type": "bytes32"
        },
        {
          "name": "",
          "type": "string"
        },
        {
          "name": "",
          "type": "string"
        },
        {
          "name": "",
          "type": "string"
        },
        {
          "name": "",
          "type": "bytes32[]"
        },
        {
          "name": "",
          "type": "bytes32[]"
        }
      ],
      "payable": false,
      "stateMutability": "nonpayable",
      "type": "function",
      "signature": "0x5eb92870"
    },
    {
      "constant": false,
      "inputs": [
        {
          "name": "u_id",
          "type": "bytes32"
        },
        {
          "name": "i_id",
          "type": "bytes32"
        },
        {
          "name": "s_id",
          "type": "bytes32[]"
        }
      ],
      "name": "addSource",
      "outputs": [],
      "payable": false,
      "stateMutability": "nonpayable",
      "type": "function",
      "signature": "0x2d27077c"
    },
    {
      "constant": false,
      "inputs": [
        {
          "name": "u_id",
          "type": "bytes32"
        },
        {
          "name": "i_id",
          "type": "bytes32"
        },
        {
          "name": "d_id",
          "type": "bytes32[]"
        }
      ],
      "name": "addDerivative",
      "outputs": [],
      "payable": false,
      "stateMutability": "nonpayable",
      "type": "function",
      "signature": "0x6d82360a"
    }
  ],
  "bytecode": "0x60806040523480156200001157600080fd5b506200015c7f35636135656331346135656636353234336431383061373100000000000000007f35636135656638323138343564373234386539363135666300000000000000006040805190810160405280600781526020017f6b697474656e32000000000000000000000000000000000000000000000000008152506040805190810160405280601581526020017f63757465206361742066726f6d206d7920686f6d650000000000000000000000815250608060405190810160405280605181526020017f68747470733a2f2f7265732e636c6f7564696e6172792e636f6d2f667970313881526020017f3030332f696d6167652f75706c6f61642f76313535343534313636332f61727481526020017f776f726b732f6b697474656e322e6a706700000000000000000000000000000081525062000540640100000000026401000000009004565b620002a67f35636135656332666135656636353234336431383061373200000000000000007f35636135663265333363656563323234633931396637656400000000000000006040805190810160405280600581526020017f426f7865720000000000000000000000000000000000000000000000000000008152506040805190810160405280601a81526020017f66756e6e7920646f672066726f6d206d79206e65696768626f72000000000000815250608060405190810160405280604f81526020017f68747470733a2f2f7265732e636c6f7564696e6172792e636f6d2f667970313881526020017f3030332f696d6167652f75706c6f61642f76313535343534313636332f61727481526020017f776f726b732f626f7865722e6a7067000000000000000000000000000000000081525062000540640100000000026401000000009004565b620003f07f35636135656332666135656636353234336431383061373200000000000000007f35636135663331303363656563323234633931396637656500000000000000006040805190810160405280601081526020017f676f6c64656e2d726574726965766572000000000000000000000000000000008152506040805190810160405280600881526020017f676f6c6420646f67000000000000000000000000000000000000000000000000815250608060405190810160405280605a81526020017f68747470733a2f2f7265732e636c6f7564696e6172792e636f6d2f667970313881526020017f3030332f696d6167652f75706c6f61642f76313535343534313636332f61727481526020017f776f726b732f676f6c64656e2d7265747269657665722e6a706700000000000081525062000540640100000000026401000000009004565b6200053a7f35636135656332666135656636353234336431383061373200000000000000007f35636135663535323732353935633234646466386133356300000000000000006040805190810160405280600781526020017f6b697474656e33000000000000000000000000000000000000000000000000008152506040805190810160405280600b81526020017f756e69717565206f6e6520000000000000000000000000000000000000000000815250608060405190810160405280605181526020017f68747470733a2f2f7265732e636c6f7564696e6172792e636f6d2f667970313881526020017f3030332f696d6167652f75706c6f61642f76313535343534313636332f61727481526020017f776f726b732f6b697474656e332e6a706700000000000000000000000000000081525062000540640100000000026401000000009004565b620007a3565b600080815480929190600101919050555060608060008787604051602001808381526020018281526020019250505060405160208183030381529060405280519060200120905060c0604051908101604052808281526020018781526020018681526020018581526020018481526020018381525060016000838152602001908152602001600020600082015181600001556020820151816001019080519060200190620005f09291906200067a565b5060408201518160020190805190602001906200060f9291906200067a565b5060608201518160030190805190602001906200062e9291906200067a565b5060808201518160040190805190602001906200064d92919062000701565b5060a08201518160050190805190602001906200066c92919062000701565b509050505050505050505050565b828054600181600116156101000203166002900490600052602060002090601f016020900481019282601f10620006bd57805160ff1916838001178555620006ee565b82800160010185558215620006ee579182015b82811115620006ed578251825591602001919060010190620006d0565b5b509050620006fd919062000753565b5090565b82805482825590600052602060002090810192821562000740579160200282015b828111156200073f57825182559160200191906001019062000722565b5b5090506200074f91906200077b565b5090565b6200077891905b80821115620007745760008160009055506001016200075a565b5090565b90565b620007a091905b808211156200079c57600081600090555060010162000782565b5090565b90565b61142b80620007b36000396000f3fe608060405260043610610083576000357c0100000000000000000000000000000000000000000000000000000000900463ffffffff1680632d27077c14610088578063360e09f0146101615780635eb92870146102f45780636d82360a14610528578063b78826c114610601578063b915f5511461080b578063c2a8dc7e14610943575b600080fd5b34801561009457600080fd5b5061015f600480360360608110156100ab57600080fd5b810190808035906020019092919080359060200190929190803590602001906401000000008111156100dc57600080fd5b8201836020820111156100ee57600080fd5b8035906020019184602083028401116401000000008311171561011057600080fd5b919080806020026020016040519081016040528093929190818152602001838360200280828437600081840152601f19601f82011690508083019250505050505050919291929050505061096e565b005b34801561016d57600080fd5b5061019a6004803603602081101561018457600080fd5b8101908080359060200190929190505050610a1b565b60405180858152602001806020018060200180602001848103845287818151815260200191508051906020019080838360005b838110156101e85780820151818401526020810190506101cd565b50505050905090810190601f1680156102155780820380516001836020036101000a031916815260200191505b50848103835286818151815260200191508051906020019080838360005b8381101561024e578082015181840152602081019050610233565b50505050905090810190601f16801561027b5780820380516001836020036101000a031916815260200191505b50848103825285818151815260200191508051906020019080838360005b838110156102b4578082015181840152602081019050610299565b50505050905090810190601f1680156102e15780820380516001836020036101000a031916815260200191505b5097505050505050505060405180910390f35b34801561030057600080fd5b506103376004803603604081101561031757600080fd5b810190808035906020019092919080359060200190929190505050610c13565b60405180888152602001878152602001806020018060200180602001806020018060200186810386528b818151815260200191508051906020019080838360005b83811015610393578082015181840152602081019050610378565b50505050905090810190601f1680156103c05780820380516001836020036101000a031916815260200191505b5086810385528a818151815260200191508051906020019080838360005b838110156103f95780820151818401526020810190506103de565b50505050905090810190601f1680156104265780820380516001836020036101000a031916815260200191505b50868103845289818151815260200191508051906020019080838360005b8381101561045f578082015181840152602081019050610444565b50505050905090810190601f16801561048c5780820380516001836020036101000a031916815260200191505b50868103835288818151815260200191508051906020019060200280838360005b838110156104c85780820151818401526020810190506104ad565b50505050905001868103825287818151815260200191508051906020019060200280838360005b8381101561050a5780820151818401526020810190506104ef565b505050509050019c5050505050505050505050505060405180910390f35b34801561053457600080fd5b506105ff6004803603606081101561054b57600080fd5b8101908080359060200190929190803590602001909291908035906020019064010000000081111561057c57600080fd5b82018360208201111561058e57600080fd5b803590602001918460208302840111640100000000831117156105b057600080fd5b919080806020026020016040519081016040528093929190818152602001838360200280828437600081840152601f19601f820116905080830192505050505050509192919290505050610f54565b005b34801561060d57600080fd5b50610809600480360360a081101561062457600080fd5b8101908080359060200190929190803590602001909291908035906020019064010000000081111561065557600080fd5b82018360208201111561066757600080fd5b8035906020019184600183028401116401000000008311171561068957600080fd5b91908080601f016020809104026020016040519081016040528093929190818152602001838380828437600081840152601f19601f820116905080830192505050505050509192919290803590602001906401000000008111156106ec57600080fd5b8201836020820111156106fe57600080fd5b8035906020019184600183028401116401000000008311171561072057600080fd5b91908080601f016020809104026020016040519081016040528093929190818152602001838380828437600081840152601f19601f8201169050808301925050505050505091929192908035906020019064010000000081111561078357600080fd5b82018360208201111561079557600080fd5b803590602001918460018302840111640100000000831117156107b757600080fd5b91908080601f016020809104026020016040519081016040528093929190818152602001838380828437600081840152601f19601f820116905080830192505050505050509192919290505050611001565b005b34801561081757600080fd5b5061084e6004803603604081101561082e57600080fd5b810190808035906020019092919080359060200190929190505050611131565b604051808581526020018481526020018060200180602001838103835285818151815260200191508051906020019080838360005b8381101561089e578082015181840152602081019050610883565b50505050905090810190601f1680156108cb5780820380516001836020036101000a031916815260200191505b50838103825284818151815260200191508051906020019080838360005b838110156109045780820151818401526020810190506108e9565b50505050905090810190601f1680156109315780820380516001836020036101000a031916815260200191505b50965050505050505060405180910390f35b34801561094f57600080fd5b506109586112e2565b6040518082815260200191505060405180910390f35b60008383604051602001808381526020018281526020019250505060405160208183030381529060405280519060200120905060008090505b8251811015610a14576001600083815260200190815260200160002060040183828151811015156109d457fe5b90602001906020020151908060018154018082558091505090600182039060005260206000200160009091929091909150555080806001019150506109a7565b5050505050565b6001602052806000526040600020600091509050806000015490806001018054600181600116156101000203166002900480601f016020809104026020016040519081016040528092919081815260200182805460018160011615610100020316600290048015610acd5780601f10610aa257610100808354040283529160200191610acd565b820191906000526020600020905b815481529060010190602001808311610ab057829003601f168201915b505050505090806002018054600181600116156101000203166002900480601f016020809104026020016040519081016040528092919081815260200182805460018160011615610100020316600290048015610b6b5780601f10610b4057610100808354040283529160200191610b6b565b820191906000526020600020905b815481529060010190602001808311610b4e57829003601f168201915b505050505090806003018054600181600116156101000203166002900480601f016020809104026020016040519081016040528092919081815260200182805460018160011615610100020316600290048015610c095780601f10610bde57610100808354040283529160200191610c09565b820191906000526020600020905b815481529060010190602001808311610bec57829003601f168201915b5050505050905084565b600080606080606080606060008989604051602001808381526020018281526020019250505060405160208183030381529060405280519060200120905089896001600084815260200190815260200160002060010160016000858152602001908152602001600020600201600160008681526020019081526020016000206003016001600087815260200190815260200160002060040160016000888152602001908152602001600020600501848054600181600116156101000203166002900480601f016020809104026020016040519081016040528092919081815260200182805460018160011615610100020316600290048015610d565780601f10610d2b57610100808354040283529160200191610d56565b820191906000526020600020905b815481529060010190602001808311610d3957829003601f168201915b50505050509450838054600181600116156101000203166002900480601f016020809104026020016040519081016040528092919081815260200182805460018160011615610100020316600290048015610df25780601f10610dc757610100808354040283529160200191610df2565b820191906000526020600020905b815481529060010190602001808311610dd557829003601f168201915b50505050509350828054600181600116156101000203166002900480601f016020809104026020016040519081016040528092919081815260200182805460018160011615610100020316600290048015610e8e5780601f10610e6357610100808354040283529160200191610e8e565b820191906000526020600020905b815481529060010190602001808311610e7157829003601f168201915b5050505050925081805480602002602001604051908101604052809291908181526020018280548015610ee057602002820191906000526020600020905b815481526020019060010190808311610ecc575b5050505050915080805480602002602001604051908101604052809291908181526020018280548015610f3257602002820191906000526020600020905b815481526020019060010190808311610f1e575b5050505050905097509750975097509750975097505092959891949750929550565b60008383604051602001808381526020018281526020019250505060405160208183030381529060405280519060200120905060008090505b8251811015610ffa57600160008381526020019081526020016000206005018382815181101515610fba57fe5b9060200190602002015190806001815401808255809150509060018203906000526020600020016000909192909190915055508080600101915050610f8d565b5050505050565b600080815480929190600101919050555060608060008787604051602001808381526020018281526020019250505060405160208183030381529060405280519060200120905060c06040519081016040528082815260200187815260200186815260200185815260200184815260200183815250600160008381526020019081526020016000206000820151816000015560208201518160010190805190602001906110af9291906112e8565b5060408201518160020190805190602001906110cc9291906112e8565b5060608201518160030190805190602001906110e99291906112e8565b506080820151816004019080519060200190611106929190611368565b5060a0820151816005019080519060200190611123929190611368565b509050505050505050505050565b60008060608060008686604051602001808381526020018281526020019250505060405160208183030381529060405280519060200120905086866001600084815260200190815260200160002060010160016000858152602001908152602001600020600301818054600181600116156101000203166002900480601f01602080910402602001604051908101604052809291908181526020018280546001816001161561010002031660029004801561122d5780601f106112025761010080835404028352916020019161122d565b820191906000526020600020905b81548152906001019060200180831161121057829003601f168201915b50505050509150808054600181600116156101000203166002900480601f0160208091040260200160405190810160405280929190818152602001828054600181600116156101000203166002900480156112c95780601f1061129e576101008083540402835291602001916112c9565b820191906000526020600020905b8154815290600101906020018083116112ac57829003601f168201915b5050505050905094509450945094505092959194509250565b60005481565b828054600181600116156101000203166002900490600052602060002090601f016020900481019282601f1061132957805160ff1916838001178555611357565b82800160010185558215611357579182015b8281111561135657825182559160200191906001019061133b565b5b50905061136491906113b5565b5090565b8280548282559060005260206000209081019282156113a4579160200282015b828111156113a3578251825591602001919060010190611388565b5b5090506113b191906113da565b5090565b6113d791905b808211156113d35760008160009055506001016113bb565b5090565b90565b6113fc91905b808211156113f85760008160009055506001016113e0565b5090565b9056fea165627a7a72305820046c1c2a973876181b61d1c56874357de3729fdec4ec3e26e3bc4829e63a0dca0029",
  "source": "pragma solidity 0.5.0;\n\ncontract Gallery {\n  // counter\n  uint public artworksCount;\n\n  struct Artwork {\n    bytes32 hashValue;\n    string name;\n    string caption;\n    string access;\n    bytes32[] source;\n    bytes32[] derivative;\n  }\n\n  // Read/write Artwork\n  // a hash table mapping hash(user_id, image_id) to Artwork\n  mapping(bytes32 => Artwork) public gallery;\n\n\n  constructor() public {\n    //Data for contract to be in sync with Mongo\n    addArtwork(\"5ca5ec14a5ef65243d180a71\", \"5ca5ef821845d7248e9615fc\", \"kitten2\", \"cute cat from my home\", \"https://res.cloudinary.com/fyp18003/image/upload/v1554541663/artworks/kitten2.jpg\");\n    addArtwork(\"5ca5ec2fa5ef65243d180a72\", \"5ca5f2e33ceec224c919f7ed\", \"Boxer\", \"funny dog from my neighbor\", \"https://res.cloudinary.com/fyp18003/image/upload/v1554541663/artworks/boxer.jpg\");\n    addArtwork(\"5ca5ec2fa5ef65243d180a72\", \"5ca5f3103ceec224c919f7ee\", \"golden-retriever\", \"gold dog\", \"https://res.cloudinary.com/fyp18003/image/upload/v1554541663/artworks/golden-retriever.jpg\");\n    addArtwork(\"5ca5ec2fa5ef65243d180a72\", \"5ca5f55272595c24ddf8a35c\", \"kitten3\", \"unique one \", \"https://res.cloudinary.com/fyp18003/image/upload/v1554541663/artworks/kitten3.jpg\");\n\n  }\n\n  function addArtwork (bytes32 user_id, bytes32 image_id, string memory _name, string memory caption, string memory access) public {\n    artworksCount ++;\n    bytes32[] memory p;\n    bytes32[] memory f;\n    bytes32 hashV = keccak256(abi.encodePacked(user_id, image_id));\n    gallery[hashV] = Artwork(hashV, _name, caption, access, p, f);\n  }\n\n  function retrieveArtwork (bytes32 u_id, bytes32 i_id) public returns(bytes32, bytes32, string memory, string memory) {\n    bytes32 hashV = keccak256(abi.encodePacked(u_id, i_id));\n    return (u_id, i_id, gallery[hashV].name, gallery[hashV].access);\n  }\n\n  function retrieveArtworkInfo (bytes32 u_id, bytes32 i_id) public returns(bytes32, bytes32, string memory, string memory, string memory, bytes32[] memory, bytes32[] memory) {\n    bytes32 hashV = keccak256(abi.encodePacked(u_id, i_id));\n    return (u_id, i_id, gallery[hashV].name, gallery[hashV].caption, gallery[hashV].access, gallery[hashV].source, gallery[hashV].derivative);\n  }\n\n  function addSource (bytes32 u_id, bytes32 i_id, bytes32[] memory s_id) public {\n    bytes32 hashV = keccak256(abi.encodePacked(u_id, i_id));\n    for (uint i=0; i<s_id.length; i++) {\n      gallery[hashV].source.push(s_id[i]);\n    }\n  }\n\n  function addDerivative (bytes32 u_id, bytes32 i_id, bytes32[] memory d_id) public {\n    bytes32 hashV = keccak256(abi.encodePacked(u_id, i_id));\n    for (uint i=0; i<d_id.length; i++) {\n      gallery[hashV].derivative.push(d_id[i]);\n    }\n  }\n\n/*\n  function retrieveSource (string memory user_id, string memory image_id) public returns(uint[] memory source){\n    bytes32 hashV = keccak256(abi.encodePacked(user_id, image_id));\n    return gallery[hashV].source;\n  }\n\n  function addDerivative (string memory user_id, string memory image_id, uint der_id) public {\n    bytes32 hashV = keccak256(abi.encodePacked(user_id, image_id));\n    gallery[hashV].derivative.push(der_id);\n  }\n\n  function retrieveDerivative (string memory user_id, string memory image_id) public returns (uint[] memory derivative) {\n    bytes32 hashV = keccak256(abi.encodePacked(user_id, image_id));\n    return gallery[hashV].derivative;\n  } */\n\n\n\n}\n",
  "sourcePath": "/Users/VanessaY/Codes/FYPdemo/decentral_app/contracts/Gallery.sol",
  "compiler": {
    "name": "solc",
    "version": "0.5.0+commit.1d4f565a.Emscripten.clang"
  },
  "schemaVersion": "3.0.2",
  "updatedAt": "2019-04-13T03:23:17.050Z",
  "devdoc": {
    "methods": {}
  },
  "userdoc": {
    "methods": {}
  }
}