{
  "contractName": "Gallery",
  "abi": [
    {
      "constant": true,
      "inputs": [
        {
          "name": "",
          "type": "bytes32"
        }
      ],
      "name": "gallery",
      "outputs": [
        {
          "name": "hashValue",
          "type": "bytes32"
        },
        {
          "name": "name",
          "type": "string"
        },
        {
          "name": "accessL",
          "type": "string"
        }
      ],
      "payable": false,
      "stateMutability": "view",
      "type": "function",
      "signature": "0x360e09f0"
    },
    {
      "constant": true,
      "inputs": [],
      "name": "artworksCount",
      "outputs": [
        {
          "name": "",
          "type": "uint256"
        }
      ],
      "payable": false,
      "stateMutability": "view",
      "type": "function",
      "signature": "0xc2a8dc7e"
    },
    {
      "inputs": [],
      "payable": false,
      "stateMutability": "nonpayable",
      "type": "constructor",
      "signature": "constructor"
    },
    {
      "constant": false,
      "inputs": [
        {
          "name": "_name",
          "type": "string"
        },
        {
          "name": "accessL",
          "type": "string"
        },
        {
          "name": "user_id",
          "type": "uint256"
        },
        {
          "name": "image_id",
          "type": "uint256"
        }
      ],
      "name": "addArtwork",
      "outputs": [],
      "payable": false,
      "stateMutability": "nonpayable",
      "type": "function",
      "signature": "0xe6b2a4b5"
    },
    {
      "constant": false,
      "inputs": [
        {
          "name": "user_id",
          "type": "uint256"
        },
        {
          "name": "image_id",
          "type": "uint256"
        }
      ],
      "name": "retrieveArtwork",
      "outputs": [
        {
          "name": "i_id",
          "type": "uint256"
        },
        {
          "name": "_name",
          "type": "string"
        },
        {
          "name": "accessL",
          "type": "string"
        },
        {
          "name": "source",
          "type": "uint256[]"
        },
        {
          "name": "derivative",
          "type": "uint256[]"
        }
      ],
      "payable": false,
      "stateMutability": "nonpayable",
      "type": "function",
      "signature": "0x540cf5c6"
    },
    {
      "constant": false,
      "inputs": [
        {
          "name": "user_id",
          "type": "uint256"
        },
        {
          "name": "image_id",
          "type": "uint256"
        }
      ],
      "name": "retrieveArtworkInfo",
      "outputs": [
        {
          "name": "u_id",
          "type": "uint256"
        },
        {
          "name": "i_id",
          "type": "uint256"
        },
        {
          "name": "a",
          "type": "string"
        },
        {
          "name": "accessL",
          "type": "string"
        }
      ],
      "payable": false,
      "stateMutability": "nonpayable",
      "type": "function",
      "signature": "0x1e3aeeca"
    },
    {
      "constant": false,
      "inputs": [
        {
          "name": "user_id",
          "type": "uint256"
        },
        {
          "name": "image_id",
          "type": "uint256"
        },
        {
          "name": "source_id",
          "type": "uint256"
        }
      ],
      "name": "addSource",
      "outputs": [],
      "payable": false,
      "stateMutability": "nonpayable",
      "type": "function",
      "signature": "0xfd80798a"
    },
    {
      "constant": false,
      "inputs": [
        {
          "name": "user_id",
          "type": "uint256"
        },
        {
          "name": "image_id",
          "type": "uint256"
        }
      ],
      "name": "retrieveSource",
      "outputs": [
        {
          "name": "source",
          "type": "uint256[]"
        }
      ],
      "payable": false,
      "stateMutability": "nonpayable",
      "type": "function",
      "signature": "0x16f47b67"
    },
    {
      "constant": false,
      "inputs": [
        {
          "name": "user_id",
          "type": "uint256"
        },
        {
          "name": "image_id",
          "type": "uint256"
        },
        {
          "name": "der_id",
          "type": "uint256"
        }
      ],
      "name": "addDerivative",
      "outputs": [],
      "payable": false,
      "stateMutability": "nonpayable",
      "type": "function",
      "signature": "0x2c3095ba"
    },
    {
      "constant": false,
      "inputs": [
        {
          "name": "user_id",
          "type": "uint256"
        },
        {
          "name": "image_id",
          "type": "uint256"
        }
      ],
      "name": "retrieveDerivative",
      "outputs": [
        {
          "name": "derivative",
          "type": "uint256[]"
        }
      ],
      "payable": false,
      "stateMutability": "nonpayable",
      "type": "function",
      "signature": "0xf8a63faa"
    }
  ],
  "bytecode": "0x60806040523480156200001157600080fd5b506200009b6040805190810160405280600781526020017f646156696e6369000000000000000000000000000000000000000000000000008152506040805190810160405280601181526020017f696d616765732f626f7865722e6a70656700000000000000000000000000000081525060016000620002d3640100000000026401000000009004565b620001236040805190810160405280600881526020017f4d6f6e614c6973610000000000000000000000000000000000000000000000008152506040805190810160405280601c81526020017f696d616765732f676f6c64656e2d7265747269657665722e6a70656700000000815250600180620002d3640100000000026401000000009004565b620001ab6040805190810160405280600581526020017f50617269730000000000000000000000000000000000000000000000000000008152506040805190810160405280601a81526020017f696d616765732f6672656e63682d62756c6c646f672e6a706567000000000000815250600280620002d3640100000000026401000000009004565b620002346040805190810160405280600581526020017f426f7865720000000000000000000000000000000000000000000000000000008152506040805190810160405280601c81526020017f696d616765732f73636f74746973682d746572726965722e6a7065670000000081525060016003620002d3640100000000026401000000009004565b62000253600160006001620003e7640100000000026401000000009004565b62000272600160006002620003e7640100000000026401000000009004565b62000291600160006003620003e7640100000000026401000000009004565b620002af600280600362000460640100000000026401000000009004565b620002cd600180600362000460640100000000026401000000009004565b620005da565b600080815480929190600101919050555060608060008484604051602001808381526020018281526020019250505060405160208183030381529060405280519060200120905060a06040519081016040528082815260200188815260200187815260200184815260200183815250600160008381526020019081526020016000206000820151816000015560208201518160010190805190602001906200037d929190620004d9565b5060408201518160020190805190602001906200039c929190620004d9565b506060820151816003019080519060200190620003bb92919062000560565b506080820151816004019080519060200190620003da92919062000560565b5090505050505050505050565b6000838360405160200180838152602001828152602001925050506040516020818303038152906040528051906020012090506001600082815260200190815260200160002060030182908060018154018082558091505090600182039060005260206000200160009091929091909150555050505050565b6000838360405160200180838152602001828152602001925050506040516020818303038152906040528051906020012090506001600082815260200190815260200160002060040182908060018154018082558091505090600182039060005260206000200160009091929091909150555050505050565b828054600181600116156101000203166002900490600052602060002090601f016020900481019282601f106200051c57805160ff19168380011785556200054d565b828001600101855582156200054d579182015b828111156200054c5782518255916020019190600101906200052f565b5b5090506200055c9190620005b2565b5090565b8280548282559060005260206000209081019282156200059f579160200282015b828111156200059e57825182559160200191906001019062000581565b5b509050620005ae9190620005b2565b5090565b620005d791905b80821115620005d3576000816000905550600101620005b9565b5090565b90565b61122680620005ea6000396000f3fe608060405260043610610099576000357c0100000000000000000000000000000000000000000000000000000000900463ffffffff16806316f47b671461009e5780631e3aeeca146101385780632c3095ba14610270578063360e09f0146102bf578063540cf5c6146103e6578063c2a8dc7e146105a7578063e6b2a4b5146105d2578063f8a63faa14610745578063fd80798a146107df575b600080fd5b3480156100aa57600080fd5b506100e1600480360360408110156100c157600080fd5b81019080803590602001909291908035906020019092919050505061082e565b6040518080602001828103825283818151815260200191508051906020019060200280838360005b83811015610124578082015181840152602081019050610109565b505050509050019250505060405180910390f35b34801561014457600080fd5b5061017b6004803603604081101561015b57600080fd5b8101908080359060200190929190803590602001909291905050506108d1565b604051808581526020018481526020018060200180602001838103835285818151815260200191508051906020019080838360005b838110156101cb5780820151818401526020810190506101b0565b50505050905090810190601f1680156101f85780820380516001836020036101000a031916815260200191505b50838103825284818151815260200191508051906020019080838360005b83811015610231578082015181840152602081019050610216565b50505050905090810190601f16801561025e5780820380516001836020036101000a031916815260200191505b50965050505050505060405180910390f35b34801561027c57600080fd5b506102bd6004803603606081101561029357600080fd5b81019080803590602001909291908035906020019092919080359060200190929190505050610a82565b005b3480156102cb57600080fd5b506102f8600480360360208110156102e257600080fd5b8101908080359060200190929190505050610afb565b604051808481526020018060200180602001838103835285818151815260200191508051906020019080838360005b83811015610342578082015181840152602081019050610327565b50505050905090810190601f16801561036f5780820380516001836020036101000a031916815260200191505b50838103825284818151815260200191508051906020019080838360005b838110156103a857808201518184015260208101905061038d565b50505050905090810190601f1680156103d55780820380516001836020036101000a031916815260200191505b509550505050505060405180910390f35b3480156103f257600080fd5b506104296004803603604081101561040957600080fd5b810190808035906020019092919080359060200190929190505050610c55565b6040518086815260200180602001806020018060200180602001858103855289818151815260200191508051906020019080838360005b8381101561047b578082015181840152602081019050610460565b50505050905090810190601f1680156104a85780820380516001836020036101000a031916815260200191505b50858103845288818151815260200191508051906020019080838360005b838110156104e15780820151818401526020810190506104c6565b50505050905090810190601f16801561050e5780820380516001836020036101000a031916815260200191505b50858103835287818151815260200191508051906020019060200280838360005b8381101561054a57808201518184015260208101905061052f565b50505050905001858103825286818151815260200191508051906020019060200280838360005b8381101561058c578082015181840152602081019050610571565b50505050905001995050505050505050505060405180910390f35b3480156105b357600080fd5b506105bc610eda565b6040518082815260200191505060405180910390f35b3480156105de57600080fd5b50610743600480360360808110156105f557600080fd5b810190808035906020019064010000000081111561061257600080fd5b82018360208201111561062457600080fd5b8035906020019184600183028401116401000000008311171561064657600080fd5b91908080601f016020809104026020016040519081016040528093929190818152602001838380828437600081840152601f19601f820116905080830192505050505050509192919290803590602001906401000000008111156106a957600080fd5b8201836020820111156106bb57600080fd5b803590602001918460018302840111640100000000831117156106dd57600080fd5b91908080601f016020809104026020016040519081016040528093929190818152602001838380828437600081840152601f19601f8201169050808301925050505050505091929192908035906020019092919080359060200190929190505050610ee0565b005b34801561075157600080fd5b506107886004803603604081101561076857600080fd5b810190808035906020019092919080359060200190929190505050610fec565b6040518080602001828103825283818151815260200191508051906020019060200280838360005b838110156107cb5780820151818401526020810190506107b0565b505050509050019250505060405180910390f35b3480156107eb57600080fd5b5061082c6004803603606081101561080257600080fd5b8101908080359060200190929190803590602001909291908035906020019092919050505061108f565b005b6060600083836040516020018083815260200182815260200192505050604051602081830303815290604052805190602001209050600160008281526020019081526020016000206003018054806020026020016040519081016040528092919081815260200182805480156108c357602002820191906000526020600020905b8154815260200190600101908083116108af575b505050505091505092915050565b60008060608060008686604051602001808381526020018281526020019250505060405160208183030381529060405280519060200120905086866001600084815260200190815260200160002060010160016000858152602001908152602001600020600201818054600181600116156101000203166002900480601f0160208091040260200160405190810160405280929190818152602001828054600181600116156101000203166002900480156109cd5780601f106109a2576101008083540402835291602001916109cd565b820191906000526020600020905b8154815290600101906020018083116109b057829003601f168201915b50505050509150808054600181600116156101000203166002900480601f016020809104026020016040519081016040528092919081815260200182805460018160011615610100020316600290048015610a695780601f10610a3e57610100808354040283529160200191610a69565b820191906000526020600020905b815481529060010190602001808311610a4c57829003601f168201915b5050505050905094509450945094505092959194509250565b6000838360405160200180838152602001828152602001925050506040516020818303038152906040528051906020012090506001600082815260200190815260200160002060040182908060018154018082558091505090600182039060005260206000200160009091929091909150555050505050565b6001602052806000526040600020600091509050806000015490806001018054600181600116156101000203166002900480601f016020809104026020016040519081016040528092919081815260200182805460018160011615610100020316600290048015610bad5780601f10610b8257610100808354040283529160200191610bad565b820191906000526020600020905b815481529060010190602001808311610b9057829003601f168201915b505050505090806002018054600181600116156101000203166002900480601f016020809104026020016040519081016040528092919081815260200182805460018160011615610100020316600290048015610c4b5780601f10610c2057610100808354040283529160200191610c4b565b820191906000526020600020905b815481529060010190602001808311610c2e57829003601f168201915b5050505050905083565b60006060806060806000878760405160200180838152602001828152602001925050506040516020818303038152906040528051906020012090508660016000838152602001908152602001600020600101600160008481526020019081526020016000206002016001600085815260200190815260200160002060030160016000868152602001908152602001600020600401838054600181600116156101000203166002900480601f016020809104026020016040519081016040528092919081815260200182805460018160011615610100020316600290048015610d7e5780601f10610d5357610100808354040283529160200191610d7e565b820191906000526020600020905b815481529060010190602001808311610d6157829003601f168201915b50505050509350828054600181600116156101000203166002900480601f016020809104026020016040519081016040528092919081815260200182805460018160011615610100020316600290048015610e1a5780601f10610def57610100808354040283529160200191610e1a565b820191906000526020600020905b815481529060010190602001808311610dfd57829003601f168201915b5050505050925081805480602002602001604051908101604052809291908181526020018280548015610e6c57602002820191906000526020600020905b815481526020019060010190808311610e58575b5050505050915080805480602002602001604051908101604052809291908181526020018280548015610ebe57602002820191906000526020600020905b815481526020019060010190808311610eaa575b5050505050905095509550955095509550509295509295909350565b60005481565b600080815480929190600101919050555060608060008484604051602001808381526020018281526020019250505060405160208183030381529060405280519060200120905060a0604051908101604052808281526020018881526020018781526020018481526020018381525060016000838152602001908152602001600020600082015181600001556020820151816001019080519060200190610f88929190611108565b506040820151816002019080519060200190610fa5929190611108565b506060820151816003019080519060200190610fc2929190611188565b506080820151816004019080519060200190610fdf929190611188565b5090505050505050505050565b60606000838360405160200180838152602001828152602001925050506040516020818303038152906040528051906020012090506001600082815260200190815260200160002060040180548060200260200160405190810160405280929190818152602001828054801561108157602002820191906000526020600020905b81548152602001906001019080831161106d575b505050505091505092915050565b6000838360405160200180838152602001828152602001925050506040516020818303038152906040528051906020012090506001600082815260200190815260200160002060030182908060018154018082558091505090600182039060005260206000200160009091929091909150555050505050565b828054600181600116156101000203166002900490600052602060002090601f016020900481019282601f1061114957805160ff1916838001178555611177565b82800160010185558215611177579182015b8281111561117657825182559160200191906001019061115b565b5b50905061118491906111d5565b5090565b8280548282559060005260206000209081019282156111c4579160200282015b828111156111c35782518255916020019190600101906111a8565b5b5090506111d191906111d5565b5090565b6111f791905b808211156111f35760008160009055506001016111db565b5090565b9056fea165627a7a723058209557f14595efd6a28ac37e4aaadf2052af4278055de02e56cff07237f09e85770029",
  "source": "pragma solidity 0.5.0;\n\ncontract Gallery {\n  // counter\n  uint public artworksCount;\n\n  struct Artwork {\n    bytes32 hashValue;\n    string name;\n    string accessL;\n    //store other works in form of image_id that references to Mongo\n    uint[] source;\n    uint[] derivative;\n  }\n\n  // Read/write Artwork\n  // a hash table mapping hash(user_id, image_id) to Artwork\n  mapping(bytes32 => Artwork) public gallery;\n\n\n  constructor() public {\n    addArtwork(\"daVinci\",\"images/boxer.jpeg\", 1, 0);\n    addArtwork(\"MonaLisa\",\"images/golden-retriever.jpeg\", 1, 1);\n    addArtwork(\"Paris\", \"images/french-bulldog.jpeg\", 2, 2);\n    addArtwork(\"Boxer\", \"images/scottish-terrier.jpeg\", 1, 3);\n    addSource(1,0,1);\n    addSource(1,0,2);\n    addSource(1,0,3);\n    addDerivative(2,2,3);\n    addDerivative(1,1,3);\n  }\n\n\n  function addArtwork (string memory _name, string memory accessL, uint user_id, uint image_id) public {\n    artworksCount ++;\n    uint[] memory p;\n    uint[] memory f;\n    bytes32 hashV = keccak256(abi.encodePacked(user_id, image_id));\n    gallery[hashV] = Artwork(hashV, _name, accessL, p, f);\n  }\n\n  function retrieveArtwork (uint user_id, uint image_id) public returns(uint i_id, string memory _name, string memory accessL, uint[] memory source, uint[] memory derivative) {\n    bytes32 hashV = keccak256(abi.encodePacked(user_id, image_id));\n    return (image_id, gallery[hashV].name, gallery[hashV].accessL, gallery[hashV].source, gallery[hashV].derivative) ;\n  }\n\n  function retrieveArtworkInfo (uint user_id, uint image_id) public returns(uint u_id, uint i_id,string memory a, string memory accessL) {\n    bytes32 hashV = keccak256(abi.encodePacked(user_id, image_id));\n    return (user_id, image_id, gallery[hashV].name, gallery[hashV].accessL);\n  }\n\n  function addSource (uint user_id, uint image_id, uint source_id) public {\n    bytes32 hashV = keccak256(abi.encodePacked(user_id, image_id));\n    gallery[hashV].source.push(source_id);\n  }\n\n  function retrieveSource (uint user_id, uint image_id) public returns(uint[] memory source){\n    bytes32 hashV = keccak256(abi.encodePacked(user_id, image_id));\n    return gallery[hashV].source;\n  }\n\n  function addDerivative (uint user_id, uint image_id, uint der_id) public {\n    bytes32 hashV = keccak256(abi.encodePacked(user_id, image_id));\n    gallery[hashV].derivative.push(der_id);\n  }\n\n  function retrieveDerivative (uint user_id, uint image_id) public returns (uint[] memory derivative) {\n    bytes32 hashV = keccak256(abi.encodePacked(user_id, image_id));\n    return gallery[hashV].derivative;\n  }\n\n\n\n}\n",
  "sourcePath": "/Users/VanessaY/Codes/FYPdemo/decentral_app/contracts/Gallery.sol",
  "compiler": {
    "name": "solc",
    "version": "0.5.0+commit.1d4f565a.Emscripten.clang"
  },
  "schemaVersion": "3.0.2",
  "updatedAt": "2019-02-28T10:33:09.029Z",
  "devdoc": {
    "methods": {}
  },
  "userdoc": {
    "methods": {}
  }
}