{
  "contractName": "Gallery",
  "abi": [
    {
      "constant": true,
      "inputs": [
        {
          "name": "",
          "type": "bytes32"
        }
      ],
      "name": "gallery",
      "outputs": [
        {
          "name": "hashValue",
          "type": "bytes32"
        },
        {
          "name": "name",
          "type": "string"
        },
        {
          "name": "caption",
          "type": "string"
        },
        {
          "name": "access",
          "type": "string"
        }
      ],
      "payable": false,
      "stateMutability": "view",
      "type": "function",
      "signature": "0x360e09f0"
    },
    {
      "constant": true,
      "inputs": [],
      "name": "artworksCount",
      "outputs": [
        {
          "name": "",
          "type": "uint256"
        }
      ],
      "payable": false,
      "stateMutability": "view",
      "type": "function",
      "signature": "0xc2a8dc7e"
    },
    {
      "inputs": [],
      "payable": false,
      "stateMutability": "nonpayable",
      "type": "constructor",
      "signature": "constructor"
    },
    {
      "constant": false,
      "inputs": [
        {
          "name": "user_id",
          "type": "bytes32"
        },
        {
          "name": "image_id",
          "type": "bytes32"
        },
        {
          "name": "_name",
          "type": "string"
        },
        {
          "name": "caption",
          "type": "string"
        },
        {
          "name": "access",
          "type": "string"
        }
      ],
      "name": "addArtwork",
      "outputs": [],
      "payable": false,
      "stateMutability": "nonpayable",
      "type": "function",
      "signature": "0xb78826c1"
    },
    {
      "constant": false,
      "inputs": [
        {
          "name": "u_id",
          "type": "bytes32"
        },
        {
          "name": "i_id",
          "type": "bytes32"
        }
      ],
      "name": "retrieveArtwork",
      "outputs": [
        {
          "name": "",
          "type": "bytes32"
        },
        {
          "name": "",
          "type": "bytes32"
        },
        {
          "name": "",
          "type": "string"
        },
        {
          "name": "",
          "type": "string"
        }
      ],
      "payable": false,
      "stateMutability": "nonpayable",
      "type": "function",
      "signature": "0xb915f551"
    },
    {
      "constant": false,
      "inputs": [
        {
          "name": "u_id",
          "type": "bytes32"
        },
        {
          "name": "i_id",
          "type": "bytes32"
        }
      ],
      "name": "retrieveArtworkInfo",
      "outputs": [
        {
          "name": "",
          "type": "bytes32"
        },
        {
          "name": "",
          "type": "bytes32"
        },
        {
          "name": "",
          "type": "string"
        },
        {
          "name": "",
          "type": "string"
        },
        {
          "name": "",
          "type": "string"
        },
        {
          "name": "",
          "type": "bytes32[]"
        },
        {
          "name": "",
          "type": "bytes32[]"
        }
      ],
      "payable": false,
      "stateMutability": "nonpayable",
      "type": "function",
      "signature": "0x5eb92870"
    },
    {
      "constant": false,
      "inputs": [
        {
          "name": "u_id",
          "type": "bytes32"
        },
        {
          "name": "i_id",
          "type": "bytes32"
        }
      ],
      "name": "retrieveArtworkAccess",
      "outputs": [
        {
          "name": "",
          "type": "string"
        }
      ],
      "payable": false,
      "stateMutability": "nonpayable",
      "type": "function",
      "signature": "0x5944c171"
    },
    {
      "constant": false,
      "inputs": [
        {
          "name": "u_id",
          "type": "bytes32"
        },
        {
          "name": "i_id",
          "type": "bytes32"
        },
        {
          "name": "s_id",
          "type": "bytes32"
        }
      ],
      "name": "addSource",
      "outputs": [],
      "payable": false,
      "stateMutability": "nonpayable",
      "type": "function",
      "signature": "0xf9f64b87"
    },
    {
      "constant": false,
      "inputs": [
        {
          "name": "u_id",
          "type": "bytes32"
        },
        {
          "name": "i_id",
          "type": "bytes32"
        },
        {
          "name": "d_id",
          "type": "bytes32"
        }
      ],
      "name": "addDerivative",
      "outputs": [],
      "payable": false,
      "stateMutability": "nonpayable",
      "type": "function",
      "signature": "0xdf378e63"
    }
  ],
  "bytecode": "0x60806040523480156200001157600080fd5b506200015c7f35636135656331346135656636353234336431383061373100000000000000007f35636135656638323138343564373234386539363135666300000000000000006040805190810160405280600781526020017f6b697474656e32000000000000000000000000000000000000000000000000008152506040805190810160405280601581526020017f63757465206361742066726f6d206d7920686f6d650000000000000000000000815250608060405190810160405280605181526020017f68747470733a2f2f7265732e636c6f7564696e6172792e636f6d2f667970313881526020017f3030332f696d6167652f75706c6f61642f76313535343534313636332f61727481526020017f776f726b732f6b697474656e322e6a7067000000000000000000000000000000815250620006b4640100000000026401000000009004565b620002a67f35636135656332666135656636353234336431383061373200000000000000007f35636135663265333363656563323234633931396637656400000000000000006040805190810160405280600581526020017f426f7865720000000000000000000000000000000000000000000000000000008152506040805190810160405280601a81526020017f66756e6e7920646f672066726f6d206d79206e65696768626f72000000000000815250608060405190810160405280604f81526020017f68747470733a2f2f7265732e636c6f7564696e6172792e636f6d2f667970313881526020017f3030332f696d6167652f75706c6f61642f76313535343534313636332f61727481526020017f776f726b732f626f7865722e6a70670000000000000000000000000000000000815250620006b4640100000000026401000000009004565b620003f07f35636135656332666135656636353234336431383061373200000000000000007f35636135663331303363656563323234633931396637656500000000000000006040805190810160405280601081526020017f676f6c64656e2d726574726965766572000000000000000000000000000000008152506040805190810160405280600881526020017f676f6c6420646f67000000000000000000000000000000000000000000000000815250608060405190810160405280605a81526020017f68747470733a2f2f7265732e636c6f7564696e6172792e636f6d2f667970313881526020017f3030332f696d6167652f75706c6f61642f76313535343534313636332f61727481526020017f776f726b732f676f6c64656e2d7265747269657665722e6a7067000000000000815250620006b4640100000000026401000000009004565b6200053a7f35636135656332666135656636353234336431383061373200000000000000007f35636135663535323732353935633234646466386133356300000000000000006040805190810160405280600781526020017f6b697474656e33000000000000000000000000000000000000000000000000008152506040805190810160405280600b81526020017f756e69717565206f6e6520000000000000000000000000000000000000000000815250608060405190810160405280605181526020017f68747470733a2f2f7265732e636c6f7564696e6172792e636f6d2f667970313881526020017f3030332f696d6167652f75706c6f61642f76313535343534313636332f61727481526020017f776f726b732f6b697474656e332e6a7067000000000000000000000000000000815250620006b4640100000000026401000000009004565b620005b67f35636135656331346135656636353234336431383061373100000000000000007f35636135656638323138343564373234386539363135666300000000000000007f3563613566353532373235393563323464646638613335630000000000000000620007ee640100000000026401000000009004565b620006327f35636135656331346135656636353234336431383061373100000000000000007f35636135656638323138343564373234386539363135666300000000000000007f3563613566333130336365656332323463393139663765650000000000000000620007ee640100000000026401000000009004565b620006ae7f35636135656331346135656636353234336431383061373100000000000000007f35636135656638323138343564373234386539363135666300000000000000007f3563613566326533336365656332323463393139663765640000000000000000620007ee640100000000026401000000009004565b62000990565b600080815480929190600101919050555060608060008787604051602001808381526020018281526020019250505060405160208183030381529060405280519060200120905060c06040519081016040528082815260200187815260200186815260200185815260200184815260200183815250600160008381526020019081526020016000206000820151816000015560208201518160010190805190602001906200076492919062000867565b5060408201518160020190805190602001906200078392919062000867565b506060820151816003019080519060200190620007a292919062000867565b506080820151816004019080519060200190620007c1929190620008ee565b5060a0820151816005019080519060200190620007e0929190620008ee565b509050505050505050505050565b6000838360405160200180838152602001828152602001925050506040516020818303038152906040528051906020012090506001600082815260200190815260200160002060040182908060018154018082558091505090600182039060005260206000200160009091929091909150555050505050565b828054600181600116156101000203166002900490600052602060002090601f016020900481019282601f10620008aa57805160ff1916838001178555620008db565b82800160010185558215620008db579182015b82811115620008da578251825591602001919060010190620008bd565b5b509050620008ea919062000940565b5090565b8280548282559060005260206000209081019282156200092d579160200282015b828111156200092c5782518255916020019190600101906200090f565b5b5090506200093c919062000968565b5090565b6200096591905b808211156200096157600081600090555060010162000947565b5090565b90565b6200098d91905b80821115620009895760008160009055506001016200096f565b5090565b90565b61146580620009a06000396000f3fe60806040526004361061008e576000357c0100000000000000000000000000000000000000000000000000000000900463ffffffff168063360e09f0146100935780635944c171146102265780635eb92870146102e4578063b78826c114610518578063b915f55114610722578063c2a8dc7e1461085a578063df378e6314610885578063f9f64b87146108d4575b600080fd5b34801561009f57600080fd5b506100cc600480360360208110156100b657600080fd5b8101908080359060200190929190505050610923565b60405180858152602001806020018060200180602001848103845287818151815260200191508051906020019080838360005b8381101561011a5780820151818401526020810190506100ff565b50505050905090810190601f1680156101475780820380516001836020036101000a031916815260200191505b50848103835286818151815260200191508051906020019080838360005b83811015610180578082015181840152602081019050610165565b50505050905090810190601f1680156101ad5780820380516001836020036101000a031916815260200191505b50848103825285818151815260200191508051906020019080838360005b838110156101e65780820151818401526020810190506101cb565b50505050905090810190601f1680156102135780820380516001836020036101000a031916815260200191505b5097505050505050505060405180910390f35b34801561023257600080fd5b506102696004803603604081101561024957600080fd5b810190808035906020019092919080359060200190929190505050610b1b565b6040518080602001828103825283818151815260200191508051906020019080838360005b838110156102a957808201518184015260208101905061028e565b50505050905090810190601f1680156102d65780820380516001836020036101000a031916815260200191505b509250505060405180910390f35b3480156102f057600080fd5b506103276004803603604081101561030757600080fd5b810190808035906020019092919080359060200190929190505050610c08565b60405180888152602001878152602001806020018060200180602001806020018060200186810386528b818151815260200191508051906020019080838360005b83811015610383578082015181840152602081019050610368565b50505050905090810190601f1680156103b05780820380516001836020036101000a031916815260200191505b5086810385528a818151815260200191508051906020019080838360005b838110156103e95780820151818401526020810190506103ce565b50505050905090810190601f1680156104165780820380516001836020036101000a031916815260200191505b50868103845289818151815260200191508051906020019080838360005b8381101561044f578082015181840152602081019050610434565b50505050905090810190601f16801561047c5780820380516001836020036101000a031916815260200191505b50868103835288818151815260200191508051906020019060200280838360005b838110156104b857808201518184015260208101905061049d565b50505050905001868103825287818151815260200191508051906020019060200280838360005b838110156104fa5780820151818401526020810190506104df565b505050509050019c5050505050505050505050505060405180910390f35b34801561052457600080fd5b50610720600480360360a081101561053b57600080fd5b8101908080359060200190929190803590602001909291908035906020019064010000000081111561056c57600080fd5b82018360208201111561057e57600080fd5b803590602001918460018302840111640100000000831117156105a057600080fd5b91908080601f016020809104026020016040519081016040528093929190818152602001838380828437600081840152601f19601f8201169050808301925050505050505091929192908035906020019064010000000081111561060357600080fd5b82018360208201111561061557600080fd5b8035906020019184600183028401116401000000008311171561063757600080fd5b91908080601f016020809104026020016040519081016040528093929190818152602001838380828437600081840152601f19601f8201169050808301925050505050505091929192908035906020019064010000000081111561069a57600080fd5b8201836020820111156106ac57600080fd5b803590602001918460018302840111640100000000831117156106ce57600080fd5b91908080601f016020809104026020016040519081016040528093929190818152602001838380828437600081840152601f19601f820116905080830192505050505050509192919290505050610f49565b005b34801561072e57600080fd5b506107656004803603604081101561074557600080fd5b810190808035906020019092919080359060200190929190505050611079565b604051808581526020018481526020018060200180602001838103835285818151815260200191508051906020019080838360005b838110156107b557808201518184015260208101905061079a565b50505050905090810190601f1680156107e25780820380516001836020036101000a031916815260200191505b50838103825284818151815260200191508051906020019080838360005b8381101561081b578082015181840152602081019050610800565b50505050905090810190601f1680156108485780820380516001836020036101000a031916815260200191505b50965050505050505060405180910390f35b34801561086657600080fd5b5061086f61122a565b6040518082815260200191505060405180910390f35b34801561089157600080fd5b506108d2600480360360608110156108a857600080fd5b81019080803590602001909291908035906020019092919080359060200190929190505050611230565b005b3480156108e057600080fd5b50610921600480360360608110156108f757600080fd5b810190808035906020019092919080359060200190929190803590602001909291905050506112a9565b005b6001602052806000526040600020600091509050806000015490806001018054600181600116156101000203166002900480601f0160208091040260200160405190810160405280929190818152602001828054600181600116156101000203166002900480156109d55780601f106109aa576101008083540402835291602001916109d5565b820191906000526020600020905b8154815290600101906020018083116109b857829003601f168201915b505050505090806002018054600181600116156101000203166002900480601f016020809104026020016040519081016040528092919081815260200182805460018160011615610100020316600290048015610a735780601f10610a4857610100808354040283529160200191610a73565b820191906000526020600020905b815481529060010190602001808311610a5657829003601f168201915b505050505090806003018054600181600116156101000203166002900480601f016020809104026020016040519081016040528092919081815260200182805460018160011615610100020316600290048015610b115780601f10610ae657610100808354040283529160200191610b11565b820191906000526020600020905b815481529060010190602001808311610af457829003601f168201915b5050505050905084565b6060600083836040516020018083815260200182815260200192505050604051602081830303815290604052805190602001209050600160008281526020019081526020016000206003018054600181600116156101000203166002900480601f016020809104026020016040519081016040528092919081815260200182805460018160011615610100020316600290048015610bfa5780601f10610bcf57610100808354040283529160200191610bfa565b820191906000526020600020905b815481529060010190602001808311610bdd57829003601f168201915b505050505091505092915050565b600080606080606080606060008989604051602001808381526020018281526020019250505060405160208183030381529060405280519060200120905089896001600084815260200190815260200160002060010160016000858152602001908152602001600020600201600160008681526020019081526020016000206003016001600087815260200190815260200160002060040160016000888152602001908152602001600020600501848054600181600116156101000203166002900480601f016020809104026020016040519081016040528092919081815260200182805460018160011615610100020316600290048015610d4b5780601f10610d2057610100808354040283529160200191610d4b565b820191906000526020600020905b815481529060010190602001808311610d2e57829003601f168201915b50505050509450838054600181600116156101000203166002900480601f016020809104026020016040519081016040528092919081815260200182805460018160011615610100020316600290048015610de75780601f10610dbc57610100808354040283529160200191610de7565b820191906000526020600020905b815481529060010190602001808311610dca57829003601f168201915b50505050509350828054600181600116156101000203166002900480601f016020809104026020016040519081016040528092919081815260200182805460018160011615610100020316600290048015610e835780601f10610e5857610100808354040283529160200191610e83565b820191906000526020600020905b815481529060010190602001808311610e6657829003601f168201915b5050505050925081805480602002602001604051908101604052809291908181526020018280548015610ed557602002820191906000526020600020905b815481526020019060010190808311610ec1575b5050505050915080805480602002602001604051908101604052809291908181526020018280548015610f2757602002820191906000526020600020905b815481526020019060010190808311610f13575b5050505050905097509750975097509750975097505092959891949750929550565b600080815480929190600101919050555060608060008787604051602001808381526020018281526020019250505060405160208183030381529060405280519060200120905060c0604051908101604052808281526020018781526020018681526020018581526020018481526020018381525060016000838152602001908152602001600020600082015181600001556020820151816001019080519060200190610ff7929190611322565b506040820151816002019080519060200190611014929190611322565b506060820151816003019080519060200190611031929190611322565b50608082015181600401908051906020019061104e9291906113a2565b5060a082015181600501908051906020019061106b9291906113a2565b509050505050505050505050565b60008060608060008686604051602001808381526020018281526020019250505060405160208183030381529060405280519060200120905086866001600084815260200190815260200160002060010160016000858152602001908152602001600020600301818054600181600116156101000203166002900480601f0160208091040260200160405190810160405280929190818152602001828054600181600116156101000203166002900480156111755780601f1061114a57610100808354040283529160200191611175565b820191906000526020600020905b81548152906001019060200180831161115857829003601f168201915b50505050509150808054600181600116156101000203166002900480601f0160208091040260200160405190810160405280929190818152602001828054600181600116156101000203166002900480156112115780601f106111e657610100808354040283529160200191611211565b820191906000526020600020905b8154815290600101906020018083116111f457829003601f168201915b5050505050905094509450945094505092959194509250565b60005481565b6000838360405160200180838152602001828152602001925050506040516020818303038152906040528051906020012090506001600082815260200190815260200160002060050182908060018154018082558091505090600182039060005260206000200160009091929091909150555050505050565b6000838360405160200180838152602001828152602001925050506040516020818303038152906040528051906020012090506001600082815260200190815260200160002060040182908060018154018082558091505090600182039060005260206000200160009091929091909150555050505050565b828054600181600116156101000203166002900490600052602060002090601f016020900481019282601f1061136357805160ff1916838001178555611391565b82800160010185558215611391579182015b82811115611390578251825591602001919060010190611375565b5b50905061139e91906113ef565b5090565b8280548282559060005260206000209081019282156113de579160200282015b828111156113dd5782518255916020019190600101906113c2565b5b5090506113eb9190611414565b5090565b61141191905b8082111561140d5760008160009055506001016113f5565b5090565b90565b61143691905b8082111561143257600081600090555060010161141a565b5090565b9056fea165627a7a72305820f38c4ed38854c6c39c20fb326caaf13b844a0b3c6865cc11bca0257ca48a10130029",
  "source": "pragma solidity 0.5.0;\n\ncontract Gallery {\n  // counter\n  uint public artworksCount;\n\n  struct Artwork {\n    bytes32 hashValue;\n    string name;\n    string caption;\n    string access;\n    bytes32[] source;\n    bytes32[] derivative;\n  }\n\n  // Read/write Artwork\n  // a hash table mapping hash(user_id, image_id) to Artwork\n  mapping(bytes32 => Artwork) public gallery;\n\n\n  constructor() public {\n    //Data for contract to be in sync with Mongo\n    addArtwork(\"5ca5ec14a5ef65243d180a71\", \"5ca5ef821845d7248e9615fc\", \"kitten2\", \"cute cat from my home\", \"https://res.cloudinary.com/fyp18003/image/upload/v1554541663/artworks/kitten2.jpg\");\n    addArtwork(\"5ca5ec2fa5ef65243d180a72\", \"5ca5f2e33ceec224c919f7ed\", \"Boxer\", \"funny dog from my neighbor\", \"https://res.cloudinary.com/fyp18003/image/upload/v1554541663/artworks/boxer.jpg\");\n    addArtwork(\"5ca5ec2fa5ef65243d180a72\", \"5ca5f3103ceec224c919f7ee\", \"golden-retriever\", \"gold dog\", \"https://res.cloudinary.com/fyp18003/image/upload/v1554541663/artworks/golden-retriever.jpg\");\n    addArtwork(\"5ca5ec2fa5ef65243d180a72\", \"5ca5f55272595c24ddf8a35c\", \"kitten3\", \"unique one \", \"https://res.cloudinary.com/fyp18003/image/upload/v1554541663/artworks/kitten3.jpg\");\n    addSource(\"5ca5ec14a5ef65243d180a71\", \"5ca5ef821845d7248e9615fc\", \"5ca5f55272595c24ddf8a35c\");\n    addSource(\"5ca5ec14a5ef65243d180a71\", \"5ca5ef821845d7248e9615fc\", \"5ca5f3103ceec224c919f7ee\");\n    addSource(\"5ca5ec14a5ef65243d180a71\", \"5ca5ef821845d7248e9615fc\", \"5ca5f2e33ceec224c919f7ed\");\n  }\n\n  function addArtwork (bytes32 user_id, bytes32 image_id, string memory _name, string memory caption, string memory access) public {\n    artworksCount ++;\n    bytes32[] memory p;\n    bytes32[] memory f;\n    bytes32 hashV = keccak256(abi.encodePacked(user_id, image_id));\n    gallery[hashV] = Artwork(hashV, _name, caption, access, p, f);\n  }\n  function retrieveArtwork (bytes32 u_id, bytes32 i_id) public returns(bytes32, bytes32, string memory, string memory) {\n      bytes32 hashV = keccak256(abi.encodePacked(u_id, i_id));\n      return (u_id, i_id, gallery[hashV].name, gallery[hashV].access);\n    }\n\n  function retrieveArtworkInfo (bytes32 u_id, bytes32 i_id) public returns(bytes32, bytes32, string memory, string memory, string memory, bytes32[] memory, bytes32[] memory) {\n    bytes32 hashV = keccak256(abi.encodePacked(u_id, i_id));\n    return (u_id, i_id, gallery[hashV].name, gallery[hashV].caption, gallery[hashV].access, gallery[hashV].source, gallery[hashV].derivative);\n  }\n\n  function retrieveArtworkAccess (bytes32 u_id, bytes32 i_id) public returns(string memory) {\n    bytes32 hashV = keccak256(abi.encodePacked(u_id, i_id));\n    return (gallery[hashV].access);\n  }\n\n\n  function addSource (bytes32 u_id, bytes32 i_id, bytes32 s_id) public {\n    bytes32 hashV = keccak256(abi.encodePacked(u_id, i_id));\n    gallery[hashV].source.push(s_id);\n  }\n\n  function addDerivative (bytes32 u_id, bytes32 i_id, bytes32 d_id) public {\n    bytes32 hashV = keccak256(abi.encodePacked(u_id, i_id));\n    gallery[hashV].derivative.push(d_id);\n  }\n\n}\n",
  "sourcePath": "/Users/Alex/Documents/GitHub/FYP-demo/decentral_app/contracts/Gallery.sol",
  "compiler": {
    "name": "solc",
    "version": "0.5.0+commit.1d4f565a.Emscripten.clang"
  },
  "schemaVersion": "3.0.1",
  "updatedAt": "2019-04-13T11:35:06.919Z",
  "devdoc": {
    "methods": {}
  },
  "userdoc": {
    "methods": {}
  }
}