{
  "contractName": "Gallery",
  "abi": [
    {
      "constant": true,
      "inputs": [
        {
          "name": "",
          "type": "bytes32"
        }
      ],
      "name": "gallery",
      "outputs": [
        {
          "name": "hashValue",
          "type": "bytes32"
        },
        {
          "name": "name",
          "type": "string"
        },
        {
          "name": "access",
          "type": "string"
        }
      ],
      "payable": false,
      "stateMutability": "view",
      "type": "function",
      "signature": "0x360e09f0"
    },
    {
      "constant": true,
      "inputs": [],
      "name": "artworksCount",
      "outputs": [
        {
          "name": "",
          "type": "uint256"
        }
      ],
      "payable": false,
      "stateMutability": "view",
      "type": "function",
      "signature": "0xc2a8dc7e"
    },
    {
      "inputs": [],
      "payable": false,
      "stateMutability": "nonpayable",
      "type": "constructor",
      "signature": "constructor"
    },
    {
      "constant": false,
      "inputs": [
        {
          "name": "_name",
          "type": "string"
        },
        {
          "name": "access",
          "type": "string"
        },
        {
          "name": "user_id",
          "type": "bytes32"
        },
        {
          "name": "image_id",
          "type": "bytes32"
        }
      ],
      "name": "addArtwork",
      "outputs": [],
      "payable": false,
      "stateMutability": "nonpayable",
      "type": "function",
      "signature": "0x4fbc98ad"
    },
    {
      "constant": false,
      "inputs": [
        {
          "name": "u_id",
          "type": "bytes32"
        },
        {
          "name": "i_id",
          "type": "bytes32"
        }
      ],
      "name": "retrieveArtwork",
      "outputs": [
        {
          "name": "",
          "type": "bytes32"
        },
        {
          "name": "",
          "type": "bytes32"
        },
        {
          "name": "",
          "type": "string"
        },
        {
          "name": "",
          "type": "string"
        }
      ],
      "payable": false,
      "stateMutability": "nonpayable",
      "type": "function",
      "signature": "0xb915f551"
    },
    {
      "constant": false,
      "inputs": [
        {
          "name": "u_id",
          "type": "bytes32"
        },
        {
          "name": "i_id",
          "type": "bytes32"
        }
      ],
      "name": "retrieveArtworkInfo",
      "outputs": [
        {
          "name": "",
          "type": "bytes32"
        },
        {
          "name": "",
          "type": "bytes32"
        },
        {
          "name": "",
          "type": "string"
        },
        {
          "name": "",
          "type": "string"
        },
        {
          "name": "",
          "type": "bytes32[]"
        },
        {
          "name": "",
          "type": "bytes32[]"
        }
      ],
      "payable": false,
      "stateMutability": "nonpayable",
      "type": "function",
      "signature": "0x5eb92870"
    },
    {
      "constant": false,
      "inputs": [
        {
          "name": "u_id",
          "type": "bytes32"
        },
        {
          "name": "i_id",
          "type": "bytes32"
        },
        {
          "name": "s_id",
          "type": "bytes32[]"
        }
      ],
      "name": "addSource",
      "outputs": [],
      "payable": false,
      "stateMutability": "nonpayable",
      "type": "function",
      "signature": "0x2d27077c"
    },
    {
      "constant": false,
      "inputs": [
        {
          "name": "u_id",
          "type": "bytes32"
        },
        {
          "name": "i_id",
          "type": "bytes32"
        },
        {
          "name": "d_id",
          "type": "bytes32[]"
        }
      ],
      "name": "addDerivative",
      "outputs": [],
      "payable": false,
      "stateMutability": "nonpayable",
      "type": "function",
      "signature": "0x6d82360a"
    }
  ],
  "bytecode": "0x60806040523480156200001157600080fd5b50620000d96040805190810160405280600d81526020017f776f726b206279207465737361000000000000000000000000000000000000008152506040805190810160405280601c81526020017f696d616765732f73636f74746973682d746572726965722e6a706567000000008152507f35633736353831356338646435333061396632343762346200000000000000007f3563373635383665633864643533306139663234376234650000000000000000620001a6640100000000026401000000009004565b620001a06040805190810160405280600c81526020017f776f726b20627920616c616e00000000000000000000000000000000000000008152506040805190810160405280601c81526020017f696d616765732f73636f74746973682d746572726965722e6a706567000000008152507f35633736353832336338646435333061396632343762346300000000000000007f3563373635383864633864643533306139663234376234660000000000000000620001a6640100000000026401000000009004565b620003e3565b600080815480929190600101919050555060608060008484604051602001808381526020018281526020019250505060405160208183030381529060405280519060200120905060a060405190810160405280828152602001888152602001878152602001848152602001838152506001600083815260200190815260200160002060008201518160000155602082015181600101908051906020019062000250929190620002ba565b5060408201518160020190805190602001906200026f929190620002ba565b5060608201518160030190805190602001906200028e92919062000341565b506080820151816004019080519060200190620002ad92919062000341565b5090505050505050505050565b828054600181600116156101000203166002900490600052602060002090601f016020900481019282601f10620002fd57805160ff19168380011785556200032e565b828001600101855582156200032e579182015b828111156200032d57825182559160200191906001019062000310565b5b5090506200033d919062000393565b5090565b82805482825590600052602060002090810192821562000380579160200282015b828111156200037f57825182559160200191906001019062000362565b5b5090506200038f9190620003bb565b5090565b620003b891905b80821115620003b45760008160009055506001016200039a565b5090565b90565b620003e091905b80821115620003dc576000816000905550600101620003c2565b5090565b90565b61114280620003f36000396000f3fe608060405260043610610083576000357c0100000000000000000000000000000000000000000000000000000000900463ffffffff1680632d27077c14610088578063360e09f0146101615780634fbc98ad146102885780635eb92870146103fb5780636d82360a146105c3578063b915f5511461069c578063c2a8dc7e146107d4575b600080fd5b34801561009457600080fd5b5061015f600480360360608110156100ab57600080fd5b810190808035906020019092919080359060200190929190803590602001906401000000008111156100dc57600080fd5b8201836020820111156100ee57600080fd5b8035906020019184602083028401116401000000008311171561011057600080fd5b919080806020026020016040519081016040528093929190818152602001838360200280828437600081840152601f19601f8201169050808301925050505050505091929192905050506107ff565b005b34801561016d57600080fd5b5061019a6004803603602081101561018457600080fd5b81019080803590602001909291905050506108ac565b604051808481526020018060200180602001838103835285818151815260200191508051906020019080838360005b838110156101e45780820151818401526020810190506101c9565b50505050905090810190601f1680156102115780820380516001836020036101000a031916815260200191505b50838103825284818151815260200191508051906020019080838360005b8381101561024a57808201518184015260208101905061022f565b50505050905090810190601f1680156102775780820380516001836020036101000a031916815260200191505b509550505050505060405180910390f35b34801561029457600080fd5b506103f9600480360360808110156102ab57600080fd5b81019080803590602001906401000000008111156102c857600080fd5b8201836020820111156102da57600080fd5b803590602001918460018302840111640100000000831117156102fc57600080fd5b91908080601f016020809104026020016040519081016040528093929190818152602001838380828437600081840152601f19601f8201169050808301925050505050505091929192908035906020019064010000000081111561035f57600080fd5b82018360208201111561037157600080fd5b8035906020019184600183028401116401000000008311171561039357600080fd5b91908080601f016020809104026020016040519081016040528093929190818152602001838380828437600081840152601f19601f8201169050808301925050505050505091929192908035906020019092919080359060200190929190505050610a06565b005b34801561040757600080fd5b5061043e6004803603604081101561041e57600080fd5b810190808035906020019092919080359060200190929190505050610b12565b6040518087815260200186815260200180602001806020018060200180602001858103855289818151815260200191508051906020019080838360005b8381101561049657808201518184015260208101905061047b565b50505050905090810190601f1680156104c35780820380516001836020036101000a031916815260200191505b50858103845288818151815260200191508051906020019080838360005b838110156104fc5780820151818401526020810190506104e1565b50505050905090810190601f1680156105295780820380516001836020036101000a031916815260200191505b50858103835287818151815260200191508051906020019060200280838360005b8381101561056557808201518184015260208101905061054a565b50505050905001858103825286818151815260200191508051906020019060200280838360005b838110156105a757808201518184015260208101905061058c565b505050509050019a505050505050505050505060405180910390f35b3480156105cf57600080fd5b5061069a600480360360608110156105e657600080fd5b8101908080359060200190929190803590602001909291908035906020019064010000000081111561061757600080fd5b82018360208201111561062957600080fd5b8035906020019184602083028401116401000000008311171561064b57600080fd5b919080806020026020016040519081016040528093929190818152602001838360200280828437600081840152601f19601f820116905080830192505050505050509192919290505050610d9b565b005b3480156106a857600080fd5b506106df600480360360408110156106bf57600080fd5b810190808035906020019092919080359060200190929190505050610e48565b604051808581526020018481526020018060200180602001838103835285818151815260200191508051906020019080838360005b8381101561072f578082015181840152602081019050610714565b50505050905090810190601f16801561075c5780820380516001836020036101000a031916815260200191505b50838103825284818151815260200191508051906020019080838360005b8381101561079557808201518184015260208101905061077a565b50505050905090810190601f1680156107c25780820380516001836020036101000a031916815260200191505b50965050505050505060405180910390f35b3480156107e057600080fd5b506107e9610ff9565b6040518082815260200191505060405180910390f35b60008383604051602001808381526020018281526020019250505060405160208183030381529060405280519060200120905060008090505b82518110156108a55760016000838152602001908152602001600020600301838281518110151561086557fe5b9060200190602002015190806001815401808255809150509060018203906000526020600020016000909192909190915055508080600101915050610838565b5050505050565b6001602052806000526040600020600091509050806000015490806001018054600181600116156101000203166002900480601f01602080910402602001604051908101604052809291908181526020018280546001816001161561010002031660029004801561095e5780601f106109335761010080835404028352916020019161095e565b820191906000526020600020905b81548152906001019060200180831161094157829003601f168201915b505050505090806002018054600181600116156101000203166002900480601f0160208091040260200160405190810160405280929190818152602001828054600181600116156101000203166002900480156109fc5780601f106109d1576101008083540402835291602001916109fc565b820191906000526020600020905b8154815290600101906020018083116109df57829003601f168201915b5050505050905083565b600080815480929190600101919050555060608060008484604051602001808381526020018281526020019250505060405160208183030381529060405280519060200120905060a0604051908101604052808281526020018881526020018781526020018481526020018381525060016000838152602001908152602001600020600082015181600001556020820151816001019080519060200190610aae929190610fff565b506040820151816002019080519060200190610acb929190610fff565b506060820151816003019080519060200190610ae892919061107f565b506080820151816004019080519060200190610b0592919061107f565b5090505050505050505050565b600080606080606080600088886040516020018083815260200182815260200192505050604051602081830303815290604052805190602001209050888860016000848152602001908152602001600020600101600160008581526020019081526020016000206002016001600086815260200190815260200160002060030160016000878152602001908152602001600020600401838054600181600116156101000203166002900480601f016020809104026020016040519081016040528092919081815260200182805460018160011615610100020316600290048015610c3d5780601f10610c1257610100808354040283529160200191610c3d565b820191906000526020600020905b815481529060010190602001808311610c2057829003601f168201915b50505050509350828054600181600116156101000203166002900480601f016020809104026020016040519081016040528092919081815260200182805460018160011615610100020316600290048015610cd95780601f10610cae57610100808354040283529160200191610cd9565b820191906000526020600020905b815481529060010190602001808311610cbc57829003601f168201915b5050505050925081805480602002602001604051908101604052809291908181526020018280548015610d2b57602002820191906000526020600020905b815481526020019060010190808311610d17575b5050505050915080805480602002602001604051908101604052809291908181526020018280548015610d7d57602002820191906000526020600020905b815481526020019060010190808311610d69575b50505050509050965096509650965096509650509295509295509295565b60008383604051602001808381526020018281526020019250505060405160208183030381529060405280519060200120905060008090505b8251811015610e4157600160008381526020019081526020016000206004018382815181101515610e0157fe5b9060200190602002015190806001815401808255809150509060018203906000526020600020016000909192909190915055508080600101915050610dd4565b5050505050565b60008060608060008686604051602001808381526020018281526020019250505060405160208183030381529060405280519060200120905086866001600084815260200190815260200160002060010160016000858152602001908152602001600020600201818054600181600116156101000203166002900480601f016020809104026020016040519081016040528092919081815260200182805460018160011615610100020316600290048015610f445780601f10610f1957610100808354040283529160200191610f44565b820191906000526020600020905b815481529060010190602001808311610f2757829003601f168201915b50505050509150808054600181600116156101000203166002900480601f016020809104026020016040519081016040528092919081815260200182805460018160011615610100020316600290048015610fe05780601f10610fb557610100808354040283529160200191610fe0565b820191906000526020600020905b815481529060010190602001808311610fc357829003601f168201915b5050505050905094509450945094505092959194509250565b60005481565b828054600181600116156101000203166002900490600052602060002090601f016020900481019282601f1061104057805160ff191683800117855561106e565b8280016001018555821561106e579182015b8281111561106d578251825591602001919060010190611052565b5b50905061107b91906110cc565b5090565b8280548282559060005260206000209081019282156110bb579160200282015b828111156110ba57825182559160200191906001019061109f565b5b5090506110c891906110f1565b5090565b6110ee91905b808211156110ea5760008160009055506001016110d2565b5090565b90565b61111391905b8082111561110f5760008160009055506001016110f7565b5090565b9056fea165627a7a723058202808c5d0cacfb26960f9609fde64ebc1cc2bd18bab9dda80b5a01d0887313cd00029",
  "source": "pragma solidity 0.5.0;\n\ncontract Gallery {\n  // counter\n  uint public artworksCount;\n\n  struct Artwork {\n    bytes32 hashValue;\n    string name;\n    string access;\n    //store other works in form of image_id that references to Mongo\n    bytes32[] source;\n    bytes32[] derivative;\n  }\n\n  // Read/write Artwork\n  // a hash table mapping hash(user_id, image_id) to Artwork\n  mapping(bytes32 => Artwork) public gallery;\n\n\n  constructor() public {\n    /* addArtwork(\"daVinci\",\"images/boxer.jpeg\", 1, 0);\n    addArtwork(\"MonaLisa\",\"images/golden-retriever.jpeg\", 1, 1);\n    addArtwork(\"Paris\", \"images/french-bulldog.jpeg\", 2, 2);\n    addArtwork(\"Boxer\", \"images/scottish-terrier.jpeg\", 1, 3); */\n    addArtwork(\"work by tessa\", \"images/scottish-terrier.jpeg\", \"5c765815c8dd530a9f247b4b\", \"5c76586ec8dd530a9f247b4e\");\n    addArtwork(\"work by alan\", \"images/scottish-terrier.jpeg\", \"5c765823c8dd530a9f247b4c\", \"5c76588dc8dd530a9f247b4f\");\n    /* addArtwork(\"another by Tessa\", \"images/scottish-terrier.jpeg\", \"5c765815c8dd530a9f247b4b\", \"5c7d2969a120220604f1b6ef\");\n    addArtwork(\"another by Tessa\", \"hihi\", \"5c165815c8dd530a9f247b4b\", \"5c7d2960a120220604f1b6ef\"); */\n    /* addSource(1,0,1);\n    addSource(1,0,2);\n    addSource(1,0,3);\n    addDerivative(2,2,3);\n    addDerivative(1,1,3); */\n  }\n\n  function addArtwork (string memory _name, string memory access, bytes32 user_id, bytes32 image_id) public {\n    artworksCount ++;\n    bytes32[] memory p;\n    bytes32[] memory f;\n    bytes32 hashV = keccak256(abi.encodePacked(user_id, image_id));\n    gallery[hashV] = Artwork(hashV, _name, access, p, f);\n  }\n\n  function retrieveArtwork (bytes32 u_id, bytes32 i_id) public returns(bytes32, bytes32, string memory, string memory) {\n    bytes32 hashV = keccak256(abi.encodePacked(u_id, i_id));\n    return (u_id, i_id, gallery[hashV].name, gallery[hashV].access);\n  }\n\n  function retrieveArtworkInfo (bytes32 u_id, bytes32 i_id) public returns(bytes32, bytes32, string memory, string memory, bytes32[] memory, bytes32[] memory) {\n    bytes32 hashV = keccak256(abi.encodePacked(u_id, i_id));\n    return (u_id, i_id, gallery[hashV].name, gallery[hashV].access, gallery[hashV].source, gallery[hashV].derivative);\n  }\n\n  function addSource (bytes32 u_id, bytes32 i_id, bytes32[] memory s_id) public {\n    bytes32 hashV = keccak256(abi.encodePacked(u_id, i_id));\n    for (uint i=0; i<s_id.length; i++) {\n      gallery[hashV].source.push(s_id[i]);\n    }\n  }\n\n  function addDerivative (bytes32 u_id, bytes32 i_id, bytes32[] memory d_id) public {\n    bytes32 hashV = keccak256(abi.encodePacked(u_id, i_id));\n    for (uint i=0; i<d_id.length; i++) {\n      gallery[hashV].derivative.push(d_id[i]);\n    }\n  }\n\n/*\n  function retrieveSource (string memory user_id, string memory image_id) public returns(uint[] memory source){\n    bytes32 hashV = keccak256(abi.encodePacked(user_id, image_id));\n    return gallery[hashV].source;\n  }\n\n  function addDerivative (string memory user_id, string memory image_id, uint der_id) public {\n    bytes32 hashV = keccak256(abi.encodePacked(user_id, image_id));\n    gallery[hashV].derivative.push(der_id);\n  }\n\n  function retrieveDerivative (string memory user_id, string memory image_id) public returns (uint[] memory derivative) {\n    bytes32 hashV = keccak256(abi.encodePacked(user_id, image_id));\n    return gallery[hashV].derivative;\n  } */\n\n\n\n}\n",
  "sourcePath": "/Users/VanessaY/Codes/FYPdemo/decentral_app/contracts/Gallery.sol",
  "compiler": {
    "name": "solc",
    "version": "0.5.0+commit.1d4f565a.Emscripten.clang"
  },
  "schemaVersion": "3.0.2",
  "updatedAt": "2019-04-04T04:52:17.022Z",
  "devdoc": {
    "methods": {}
  },
  "userdoc": {
    "methods": {}
  }
}