{
  "contractName": "Gallery",
  "abi": [
    {
      "constant": true,
      "inputs": [
        {
          "name": "",
          "type": "bytes32"
        }
      ],
      "name": "gallery",
      "outputs": [
        {
          "name": "hashValue",
          "type": "bytes32"
        },
        {
          "name": "name",
          "type": "string"
        },
        {
          "name": "accessL",
          "type": "string"
        }
      ],
      "payable": false,
      "stateMutability": "view",
      "type": "function",
      "signature": "0x360e09f0"
    },
    {
      "constant": true,
      "inputs": [],
      "name": "artworksCount",
      "outputs": [
        {
          "name": "",
          "type": "uint256"
        }
      ],
      "payable": false,
      "stateMutability": "view",
      "type": "function",
      "signature": "0xc2a8dc7e"
    },
    {
      "inputs": [],
      "payable": false,
      "stateMutability": "nonpayable",
      "type": "constructor",
      "signature": "constructor"
    },
    {
      "constant": false,
      "inputs": [
        {
          "name": "_name",
          "type": "string"
        },
        {
          "name": "accessL",
          "type": "string"
        },
        {
          "name": "user_id",
          "type": "string"
        },
        {
          "name": "image_id",
          "type": "string"
        }
      ],
      "name": "addArtwork",
      "outputs": [],
      "payable": false,
      "stateMutability": "nonpayable",
      "type": "function",
      "signature": "0x83acec0a"
    },
    {
      "constant": false,
      "inputs": [
        {
          "name": "user_id",
          "type": "string"
        },
        {
          "name": "image_id",
          "type": "string"
        }
      ],
      "name": "retrieveArtwork",
      "outputs": [
        {
          "name": "i_id",
          "type": "string"
        },
        {
          "name": "_name",
          "type": "string"
        },
        {
          "name": "accessL",
          "type": "string"
        },
        {
          "name": "source",
          "type": "uint256[]"
        },
        {
          "name": "derivative",
          "type": "uint256[]"
        }
      ],
      "payable": false,
      "stateMutability": "nonpayable",
      "type": "function",
      "signature": "0x5219f19e"
    },
    {
      "constant": false,
      "inputs": [
        {
          "name": "user_id",
          "type": "string"
        },
        {
          "name": "image_id",
          "type": "string"
        }
      ],
      "name": "retrieveArtworkInfo",
      "outputs": [
        {
          "name": "u_id",
          "type": "string"
        },
        {
          "name": "i_id",
          "type": "string"
        },
        {
          "name": "a",
          "type": "string"
        },
        {
          "name": "accessL",
          "type": "string"
        }
      ],
      "payable": false,
      "stateMutability": "nonpayable",
      "type": "function",
      "signature": "0xe39f7b8f"
    }
  ],
  "bytecode": "0x60806040523480156200001157600080fd5b50620001036040805190810160405280600d81526020017f776f726b206279207465737361000000000000000000000000000000000000008152506040805190810160405280601c81526020017f696d616765732f73636f74746973682d746572726965722e6a706567000000008152506040805190810160405280601881526020017f35633736353831356338646435333061396632343762346200000000000000008152506040805190810160405280601881526020017f3563373635383665633864643533306139663234376234650000000000000000815250620001fa640100000000026401000000009004565b620001f46040805190810160405280600c81526020017f776f726b20627920616c616e00000000000000000000000000000000000000008152506040805190810160405280601c81526020017f696d616765732f73636f74746973682d746572726965722e6a706567000000008152506040805190810160405280601881526020017f35633736353832336338646435333061396632343762346300000000000000008152506040805190810160405280601881526020017f3563373635383864633864643533306139663234376234660000000000000000815250620001fa640100000000026401000000009004565b620004ad565b6000808154809291906001019190505550606080600084846040516020018083805190602001908083835b6020831015156200024c578051825260208201915060208101905060208303925062000225565b6001836020036101000a03801982511681845116808217855250505050505090500182805190602001908083835b602083101515620002a157805182526020820191506020810190506020830392506200027a565b6001836020036101000a0380198251168184511680821785525050505050509050019250505060405160208183030381529060405280519060200120905060a060405190810160405280828152602001888152602001878152602001848152602001838152506001600083815260200190815260200160002060008201518160000155602082015181600101908051906020019062000342929190620003ac565b50604082015181600201908051906020019062000361929190620003ac565b5060608201518160030190805190602001906200038092919062000433565b5060808201518160040190805190602001906200039f92919062000433565b5090505050505050505050565b828054600181600116156101000203166002900490600052602060002090601f016020900481019282601f10620003ef57805160ff191683800117855562000420565b8280016001018555821562000420579182015b828111156200041f57825182559160200191906001019062000402565b5b5090506200042f919062000485565b5090565b82805482825590600052602060002090810192821562000472579160200282015b828111156200047157825182559160200191906001019062000454565b5b50905062000481919062000485565b5090565b620004aa91905b80821115620004a65760008160009055506001016200048c565b5090565b90565b61143b80620004bd6000396000f3fe60806040526004361061006d576000357c0100000000000000000000000000000000000000000000000000000000900463ffffffff168063360e09f0146100725780635219f19e1461019957806383acec0a146104d9578063c2a8dc7e14610766578063e39f7b8f14610791575b600080fd5b34801561007e57600080fd5b506100ab6004803603602081101561009557600080fd5b8101908080359060200190929190505050610aad565b604051808481526020018060200180602001838103835285818151815260200191508051906020019080838360005b838110156100f55780820151818401526020810190506100da565b50505050905090810190601f1680156101225780820380516001836020036101000a031916815260200191505b50838103825284818151815260200191508051906020019080838360005b8381101561015b578082015181840152602081019050610140565b50505050905090810190601f1680156101885780820380516001836020036101000a031916815260200191505b509550505050505060405180910390f35b3480156101a557600080fd5b506102f6600480360360408110156101bc57600080fd5b81019080803590602001906401000000008111156101d957600080fd5b8201836020820111156101eb57600080fd5b8035906020019184600183028401116401000000008311171561020d57600080fd5b91908080601f016020809104026020016040519081016040528093929190818152602001838380828437600081840152601f19601f8201169050808301925050505050505091929192908035906020019064010000000081111561027057600080fd5b82018360208201111561028257600080fd5b803590602001918460018302840111640100000000831117156102a457600080fd5b91908080601f016020809104026020016040519081016040528093929190818152602001838380828437600081840152601f19601f820116905080830192505050505050509192919290505050610c07565b60405180806020018060200180602001806020018060200186810386528b818151815260200191508051906020019080838360005b8381101561034657808201518184015260208101905061032b565b50505050905090810190601f1680156103735780820380516001836020036101000a031916815260200191505b5086810385528a818151815260200191508051906020019080838360005b838110156103ac578082015181840152602081019050610391565b50505050905090810190601f1680156103d95780820380516001836020036101000a031916815260200191505b50868103845289818151815260200191508051906020019080838360005b838110156104125780820151818401526020810190506103f7565b50505050905090810190601f16801561043f5780820380516001836020036101000a031916815260200191505b50868103835288818151815260200191508051906020019060200280838360005b8381101561047b578082015181840152602081019050610460565b50505050905001868103825287818151815260200191508051906020019060200280838360005b838110156104bd5780820151818401526020810190506104a2565b505050509050019a505050505050505050505060405180910390f35b3480156104e557600080fd5b50610764600480360360808110156104fc57600080fd5b810190808035906020019064010000000081111561051957600080fd5b82018360208201111561052b57600080fd5b8035906020019184600183028401116401000000008311171561054d57600080fd5b91908080601f016020809104026020016040519081016040528093929190818152602001838380828437600081840152601f19601f820116905080830192505050505050509192919290803590602001906401000000008111156105b057600080fd5b8201836020820111156105c257600080fd5b803590602001918460018302840111640100000000831117156105e457600080fd5b91908080601f016020809104026020016040519081016040528093929190818152602001838380828437600081840152601f19601f8201169050808301925050505050505091929192908035906020019064010000000081111561064757600080fd5b82018360208201111561065957600080fd5b8035906020019184600183028401116401000000008311171561067b57600080fd5b91908080601f016020809104026020016040519081016040528093929190818152602001838380828437600081840152601f19601f820116905080830192505050505050509192919290803590602001906401000000008111156106de57600080fd5b8201836020820111156106f057600080fd5b8035906020019184600183028401116401000000008311171561071257600080fd5b91908080601f016020809104026020016040519081016040528093929190818152602001838380828437600081840152601f19601f820116905080830192505050505050509192919290505050610f26565b005b34801561077257600080fd5b5061077b6110cc565b6040518082815260200191505060405180910390f35b34801561079d57600080fd5b506108ee600480360360408110156107b457600080fd5b81019080803590602001906401000000008111156107d157600080fd5b8201836020820111156107e357600080fd5b8035906020019184600183028401116401000000008311171561080557600080fd5b91908080601f016020809104026020016040519081016040528093929190818152602001838380828437600081840152601f19601f8201169050808301925050505050505091929192908035906020019064010000000081111561086857600080fd5b82018360208201111561087a57600080fd5b8035906020019184600183028401116401000000008311171561089c57600080fd5b91908080601f016020809104026020016040519081016040528093929190818152602001838380828437600081840152601f19601f8201169050808301925050505050505091929192905050506110d2565b6040518080602001806020018060200180602001858103855289818151815260200191508051906020019080838360005b8381101561093a57808201518184015260208101905061091f565b50505050905090810190601f1680156109675780820380516001836020036101000a031916815260200191505b50858103845288818151815260200191508051906020019080838360005b838110156109a0578082015181840152602081019050610985565b50505050905090810190601f1680156109cd5780820380516001836020036101000a031916815260200191505b50858103835287818151815260200191508051906020019080838360005b83811015610a065780820151818401526020810190506109eb565b50505050905090810190601f168015610a335780820380516001836020036101000a031916815260200191505b50858103825286818151815260200191508051906020019080838360005b83811015610a6c578082015181840152602081019050610a51565b50505050905090810190601f168015610a995780820380516001836020036101000a031916815260200191505b509850505050505050505060405180910390f35b6001602052806000526040600020600091509050806000015490806001018054600181600116156101000203166002900480601f016020809104026020016040519081016040528092919081815260200182805460018160011615610100020316600290048015610b5f5780601f10610b3457610100808354040283529160200191610b5f565b820191906000526020600020905b815481529060010190602001808311610b4257829003601f168201915b505050505090806002018054600181600116156101000203166002900480601f016020809104026020016040519081016040528092919081815260200182805460018160011615610100020316600290048015610bfd5780601f10610bd257610100808354040283529160200191610bfd565b820191906000526020600020905b815481529060010190602001808311610be057829003601f168201915b5050505050905083565b6060806060806060600087876040516020018083805190602001908083835b602083101515610c4b5780518252602082019150602081019050602083039250610c26565b6001836020036101000a03801982511681845116808217855250505050505090500182805190602001908083835b602083101515610c9e5780518252602082019150602081019050602083039250610c79565b6001836020036101000a038019825116818451168082178552505050505050905001925050506040516020818303038152906040528051906020012090508660016000838152602001908152602001600020600101600160008481526020019081526020016000206002016001600085815260200190815260200160002060030160016000868152602001908152602001600020600401838054600181600116156101000203166002900480601f016020809104026020016040519081016040528092919081815260200182805460018160011615610100020316600290048015610dca5780601f10610d9f57610100808354040283529160200191610dca565b820191906000526020600020905b815481529060010190602001808311610dad57829003601f168201915b50505050509350828054600181600116156101000203166002900480601f016020809104026020016040519081016040528092919081815260200182805460018160011615610100020316600290048015610e665780601f10610e3b57610100808354040283529160200191610e66565b820191906000526020600020905b815481529060010190602001808311610e4957829003601f168201915b5050505050925081805480602002602001604051908101604052809291908181526020018280548015610eb857602002820191906000526020600020905b815481526020019060010190808311610ea4575b5050505050915080805480602002602001604051908101604052809291908181526020018280548015610f0a57602002820191906000526020600020905b815481526020019060010190808311610ef6575b5050505050905095509550955095509550509295509295909350565b6000808154809291906001019190505550606080600084846040516020018083805190602001908083835b602083101515610f765780518252602082019150602081019050602083039250610f51565b6001836020036101000a03801982511681845116808217855250505050505090500182805190602001908083835b602083101515610fc95780518252602082019150602081019050602083039250610fa4565b6001836020036101000a0380198251168184511680821785525050505050509050019250505060405160208183030381529060405280519060200120905060a060405190810160405280828152602001888152602001878152602001848152602001838152506001600083815260200190815260200160002060008201518160000155602082015181600101908051906020019061106892919061131d565b50604082015181600201908051906020019061108592919061131d565b5060608201518160030190805190602001906110a292919061139d565b5060808201518160040190805190602001906110bf92919061139d565b5090505050505050505050565b60005481565b606080606080600086866040516020018083805190602001908083835b60208310151561111457805182526020820191506020810190506020830392506110ef565b6001836020036101000a03801982511681845116808217855250505050505090500182805190602001908083835b6020831015156111675780518252602082019150602081019050602083039250611142565b6001836020036101000a0380198251168184511680821785525050505050509050019250505060405160208183030381529060405280519060200120905086866001600084815260200190815260200160002060010160016000858152602001908152602001600020600201818054600181600116156101000203166002900480601f0160208091040260200160405190810160405280929190818152602001828054600181600116156101000203166002900480156112685780601f1061123d57610100808354040283529160200191611268565b820191906000526020600020905b81548152906001019060200180831161124b57829003601f168201915b50505050509150808054600181600116156101000203166002900480601f0160208091040260200160405190810160405280929190818152602001828054600181600116156101000203166002900480156113045780601f106112d957610100808354040283529160200191611304565b820191906000526020600020905b8154815290600101906020018083116112e757829003601f168201915b5050505050905094509450945094505092959194509250565b828054600181600116156101000203166002900490600052602060002090601f016020900481019282601f1061135e57805160ff191683800117855561138c565b8280016001018555821561138c579182015b8281111561138b578251825591602001919060010190611370565b5b50905061139991906113ea565b5090565b8280548282559060005260206000209081019282156113d9579160200282015b828111156113d85782518255916020019190600101906113bd565b5b5090506113e691906113ea565b5090565b61140c91905b808211156114085760008160009055506001016113f0565b5090565b9056fea165627a7a72305820f317dcf7f3ed7cf684a358b2d30ba1526261dd56e3e6446c5c6a9e06347d4e700029",
  "source": "pragma solidity 0.5.0;\n\ncontract Gallery {\n  // counter\n  uint public artworksCount;\n\n  struct Artwork {\n    bytes32 hashValue;\n    string name;\n    string accessL;\n    //store other works in form of image_id that references to Mongo\n    uint[] source;\n    uint[] derivative;\n  }\n\n  // Read/write Artwork\n  // a hash table mapping hash(user_id, image_id) to Artwork\n  mapping(bytes32 => Artwork) public gallery;\n\n\n  constructor() public {\n    /* addArtwork(\"daVinci\",\"images/boxer.jpeg\", 1, 0);\n    addArtwork(\"MonaLisa\",\"images/golden-retriever.jpeg\", 1, 1);\n    addArtwork(\"Paris\", \"images/french-bulldog.jpeg\", 2, 2);\n    addArtwork(\"Boxer\", \"images/scottish-terrier.jpeg\", 1, 3); */\n    addArtwork(\"work by tessa\", \"images/scottish-terrier.jpeg\", \"5c765815c8dd530a9f247b4b\", \"5c76586ec8dd530a9f247b4e\");\n    addArtwork(\"work by alan\", \"images/scottish-terrier.jpeg\", \"5c765823c8dd530a9f247b4c\", \"5c76588dc8dd530a9f247b4f\");\n    /* addArtwork(\"another by Tessa\", \"images/scottish-terrier.jpeg\", \"5c765815c8dd530a9f247b4b\", \"5c7d2969a120220604f1b6ef\");\n    addArtwork(\"another by Tessa\", \"hihi\", \"5c165815c8dd530a9f247b4b\", \"5c7d2960a120220604f1b6ef\"); */\n    /* addSource(1,0,1);\n    addSource(1,0,2);\n    addSource(1,0,3);\n    addDerivative(2,2,3);\n    addDerivative(1,1,3); */\n  }\n\n\n  function addArtwork (string memory _name, string memory accessL, string memory user_id, string memory image_id) public {\n    artworksCount ++;\n    uint[] memory p;\n    uint[] memory f;\n    bytes32 hashV = keccak256(abi.encodePacked(user_id, image_id));\n    gallery[hashV] = Artwork(hashV, _name, accessL, p, f);\n  }\n\n  function retrieveArtwork (string memory user_id, string memory image_id) public returns(string memory i_id, string memory _name, string memory accessL, uint[] memory source, uint[] memory derivative) {\n    bytes32 hashV = keccak256(abi.encodePacked(user_id, image_id));\n    return (image_id, gallery[hashV].name, gallery[hashV].accessL, gallery[hashV].source, gallery[hashV].derivative) ;\n  }\n\n  function retrieveArtworkInfo (string memory user_id, string memory image_id) public returns(string memory u_id, string memory i_id,string memory a, string memory accessL) {\n    bytes32 hashV = keccak256(abi.encodePacked(user_id, image_id));\n    return (user_id, image_id, gallery[hashV].name, gallery[hashV].accessL);\n  }\n\n  /* function addSource (string memory user_id, string memory image_id, string memory source_id) public {\n    bytes32 hashV = keccak256(abi.encodePacked(user_id, image_id));\n    gallery[hashV].source.push(source_id);\n  }\n\n  function retrieveSource (string memory user_id, string memory image_id) public returns(uint[] memory source){\n    bytes32 hashV = keccak256(abi.encodePacked(user_id, image_id));\n    return gallery[hashV].source;\n  }\n\n  function addDerivative (string memory user_id, string memory image_id, uint der_id) public {\n    bytes32 hashV = keccak256(abi.encodePacked(user_id, image_id));\n    gallery[hashV].derivative.push(der_id);\n  }\n\n  function retrieveDerivative (string memory user_id, string memory image_id) public returns (uint[] memory derivative) {\n    bytes32 hashV = keccak256(abi.encodePacked(user_id, image_id));\n    return gallery[hashV].derivative;\n  } */\n\n\n\n}\n",
  "sourcePath": "/Users/VanessaY/Codes/FYPdemo/decentral_app/contracts/Gallery.sol",
  "compiler": {
    "name": "solc",
    "version": "0.5.0+commit.1d4f565a.Emscripten.clang"
  },
  "schemaVersion": "3.0.2",
  "updatedAt": "2019-03-31T12:37:41.113Z",
  "devdoc": {
    "methods": {}
  },
  "userdoc": {
    "methods": {}
  }
}