{
  "contractName": "Gallery",
  "abi": [
    {
      "constant": true,
      "inputs": [
        {
          "name": "",
          "type": "bytes32"
        }
      ],
      "name": "gallery",
      "outputs": [
        {
          "name": "hashValue",
          "type": "bytes32"
        },
        {
          "name": "name",
          "type": "string"
        },
        {
          "name": "caption",
          "type": "string"
        },
        {
          "name": "access",
          "type": "string"
        }
      ],
      "payable": false,
      "stateMutability": "view",
      "type": "function",
      "signature": "0x360e09f0"
    },
    {
      "constant": true,
      "inputs": [],
      "name": "artworksCount",
      "outputs": [
        {
          "name": "",
          "type": "uint256"
        }
      ],
      "payable": false,
      "stateMutability": "view",
      "type": "function",
      "signature": "0xc2a8dc7e"
    },
    {
      "inputs": [],
      "payable": false,
      "stateMutability": "nonpayable",
      "type": "constructor",
      "signature": "constructor"
    },
    {
      "constant": false,
      "inputs": [
        {
          "name": "author_id",
          "type": "bytes32"
        },
        {
          "name": "image_id",
          "type": "bytes32"
        },
        {
          "name": "_name",
          "type": "string"
        },
        {
          "name": "caption",
          "type": "string"
        },
        {
          "name": "access",
          "type": "string"
        }
      ],
      "name": "addArtwork",
      "outputs": [],
      "payable": false,
      "stateMutability": "nonpayable",
      "type": "function",
      "signature": "0xb78826c1"
    },
    {
      "constant": false,
      "inputs": [
        {
          "name": "author_id",
          "type": "bytes32"
        },
        {
          "name": "image_id",
          "type": "bytes32"
        }
      ],
      "name": "retrieveArtwork",
      "outputs": [
        {
          "name": "",
          "type": "bytes32"
        },
        {
          "name": "",
          "type": "bytes32"
        },
        {
          "name": "",
          "type": "string"
        },
        {
          "name": "",
          "type": "string"
        }
      ],
      "payable": false,
      "stateMutability": "nonpayable",
      "type": "function",
      "signature": "0xb915f551"
    },
    {
      "constant": false,
      "inputs": [
        {
          "name": "author_id",
          "type": "bytes32"
        },
        {
          "name": "image_id",
          "type": "bytes32"
        }
      ],
      "name": "retrieveArtworkInfo",
      "outputs": [
        {
          "name": "",
          "type": "bytes32"
        },
        {
          "name": "",
          "type": "bytes32"
        },
        {
          "name": "",
          "type": "string"
        },
        {
          "name": "",
          "type": "string"
        },
        {
          "name": "",
          "type": "string"
        },
        {
          "name": "",
          "type": "bytes32[]"
        },
        {
          "name": "",
          "type": "bytes32[]"
        }
      ],
      "payable": false,
      "stateMutability": "nonpayable",
      "type": "function",
      "signature": "0x5eb92870"
    },
    {
      "constant": false,
      "inputs": [
        {
          "name": "author_id",
          "type": "bytes32"
        },
        {
          "name": "image_id",
          "type": "bytes32"
        }
      ],
      "name": "retrieveArtworkAccess",
      "outputs": [
        {
          "name": "",
          "type": "string"
        }
      ],
      "payable": false,
      "stateMutability": "nonpayable",
      "type": "function",
      "signature": "0x5944c171"
    },
    {
      "constant": false,
      "inputs": [
        {
          "name": "author_id",
          "type": "bytes32"
        },
        {
          "name": "image_id",
          "type": "bytes32"
        },
        {
          "name": "source_aid",
          "type": "bytes32"
        },
        {
          "name": "source_iid",
          "type": "bytes32"
        }
      ],
      "name": "addSource",
      "outputs": [],
      "payable": false,
      "stateMutability": "nonpayable",
      "type": "function",
      "signature": "0x2be6214b"
    }
  ],
  "bytecode": "0x60806040523480156200001157600080fd5b506200015c7f35636135656332666135656636353234336431383061373200000000000000007f35636232303933366633396636613262373732313961336100000000000000006040805190810160405280600781526020017f6b697474656e32000000000000000000000000000000000000000000000000008152506040805190810160405280601581526020017f63757465206361742066726f6d206d7920686f6d650000000000000000000000815250608060405190810160405280605181526020017f68747470733a2f2f7265732e636c6f7564696e6172792e636f6d2f667970313881526020017f3030332f696d6167652f75706c6f61642f76313535343534313636332f61727481526020017f776f726b732f6b697474656e322e6a706700000000000000000000000000000081525062000708640100000000026401000000009004565b620002a67f35636139363631663133626366383065373166623334353300000000000000007f35636232303965386633396636613262373732313961336300000000000000006040805190810160405280600581526020017f426f7865720000000000000000000000000000000000000000000000000000008152506040805190810160405280601a81526020017f66756e6e7920646f672066726f6d206d79206e65696768626f72000000000000815250608060405190810160405280604f81526020017f68747470733a2f2f7265732e636c6f7564696e6172792e636f6d2f667970313881526020017f3030332f696d6167652f75706c6f61642f76313535343534313636332f61727481526020017f776f726b732f626f7865722e6a7067000000000000000000000000000000000081525062000708640100000000026401000000009004565b620003d17f356361393636316631336263663830653731666233343533000000000000000060006040805190810160405280601081526020017f676f6c64656e2d726574726965766572000000000000000000000000000000008152506040805190810160405280600881526020017f676f6c6420646f67000000000000000000000000000000000000000000000000815250608060405190810160405280605a81526020017f68747470733a2f2f7265732e636c6f7564696e6172792e636f6d2f667970313881526020017f3030332f696d6167652f75706c6f61642f76313535343534313636332f61727481526020017f776f726b732f676f6c64656e2d7265747269657665722e6a706700000000000081525062000708640100000000026401000000009004565b6200051b7f35636139363631663133626366383065373166623334353300000000000000007f35636232306132316633396636613262373732313961336400000000000000006040805190810160405280601081526020017f676f6c64656e2d726574726965766572000000000000000000000000000000008152506040805190810160405280600881526020017f676f6c6420646f67000000000000000000000000000000000000000000000000815250608060405190810160405280605a81526020017f68747470733a2f2f7265732e636c6f7564696e6172792e636f6d2f667970313881526020017f3030332f696d6167652f75706c6f61642f76313535343534313636332f61727481526020017f776f726b732f676f6c64656e2d7265747269657665722e6a706700000000000081525062000708640100000000026401000000009004565b620006657f35636135656332666135656636353234336431383061373200000000000000007f35636232303937646633396636613262373732313961336200000000000000006040805190810160405280600781526020017f6b697474656e33000000000000000000000000000000000000000000000000008152506040805190810160405280600b81526020017f756e69717565206f6e6520000000000000000000000000000000000000000000815250608060405190810160405280605181526020017f68747470733a2f2f7265732e636c6f7564696e6172792e636f6d2f667970313881526020017f3030332f696d6167652f75706c6f61642f76313535343534313636332f61727481526020017f776f726b732f6b697474656e332e6a706700000000000000000000000000000081525062000708640100000000026401000000009004565b620007027f35636139363631663133626366383065373166623334353300000000000000007f35636232303965386633396636613262373732313961336300000000000000007f35636135656332666135656636353234336431383061373200000000000000007f356362323039333666333966366132623737323139613361000000000000000062000842640100000000026401000000009004565b62000a59565b600080815480929190600101919050555060608060008787604051602001808381526020018281526020019250505060405160208183030381529060405280519060200120905060c0604051908101604052808281526020018781526020018681526020018581526020018481526020018381525060016000838152602001908152602001600020600082015181600001556020820151816001019080519060200190620007b892919062000930565b506040820151816002019080519060200190620007d792919062000930565b506060820151816003019080519060200190620007f692919062000930565b50608082015181600401908051906020019062000815929190620009b7565b5060a082015181600501908051906020019062000834929190620009b7565b509050505050505050505050565b6000848460405160200180838152602001828152602001925050506040516020818303038152906040528051906020012090506001600082815260200190815260200160002060040182908060018154018082558091505090600182039060005260206000200160009091929091909150555060008383604051602001808381526020018281526020019250505060405160208183030381529060405280519060200120905060016000828152602001908152602001600020600501859080600181540180825580915050906001820390600052602060002001600090919290919091505550505050505050565b828054600181600116156101000203166002900490600052602060002090601f016020900481019282601f106200097357805160ff1916838001178555620009a4565b82800160010185558215620009a4579182015b82811115620009a357825182559160200191906001019062000986565b5b509050620009b3919062000a09565b5090565b828054828255906000526020600020908101928215620009f6579160200282015b82811115620009f5578251825591602001919060010190620009d8565b5b50905062000a05919062000a31565b5090565b62000a2e91905b8082111562000a2a57600081600090555060010162000a10565b5090565b90565b62000a5691905b8082111562000a5257600081600090555060010162000a38565b5090565b90565b6114118062000a696000396000f3fe608060405260043610610083576000357c0100000000000000000000000000000000000000000000000000000000900463ffffffff1680632be6214b14610088578063360e09f0146100e15780635944c171146102745780635eb9287014610332578063b78826c114610566578063b915f55114610770578063c2a8dc7e146108a8575b600080fd5b34801561009457600080fd5b506100df600480360360808110156100ab57600080fd5b81019080803590602001909291908035906020019092919080359060200190929190803590602001909291905050506108d3565b005b3480156100ed57600080fd5b5061011a6004803603602081101561010457600080fd5b81019080803590602001909291905050506109c1565b60405180858152602001806020018060200180602001848103845287818151815260200191508051906020019080838360005b8381101561016857808201518184015260208101905061014d565b50505050905090810190601f1680156101955780820380516001836020036101000a031916815260200191505b50848103835286818151815260200191508051906020019080838360005b838110156101ce5780820151818401526020810190506101b3565b50505050905090810190601f1680156101fb5780820380516001836020036101000a031916815260200191505b50848103825285818151815260200191508051906020019080838360005b83811015610234578082015181840152602081019050610219565b50505050905090810190601f1680156102615780820380516001836020036101000a031916815260200191505b5097505050505050505060405180910390f35b34801561028057600080fd5b506102b76004803603604081101561029757600080fd5b810190808035906020019092919080359060200190929190505050610bb9565b6040518080602001828103825283818151815260200191508051906020019080838360005b838110156102f75780820151818401526020810190506102dc565b50505050905090810190601f1680156103245780820380516001836020036101000a031916815260200191505b509250505060405180910390f35b34801561033e57600080fd5b506103756004803603604081101561035557600080fd5b810190808035906020019092919080359060200190929190505050610ca6565b60405180888152602001878152602001806020018060200180602001806020018060200186810386528b818151815260200191508051906020019080838360005b838110156103d15780820151818401526020810190506103b6565b50505050905090810190601f1680156103fe5780820380516001836020036101000a031916815260200191505b5086810385528a818151815260200191508051906020019080838360005b8381101561043757808201518184015260208101905061041c565b50505050905090810190601f1680156104645780820380516001836020036101000a031916815260200191505b50868103845289818151815260200191508051906020019080838360005b8381101561049d578082015181840152602081019050610482565b50505050905090810190601f1680156104ca5780820380516001836020036101000a031916815260200191505b50868103835288818151815260200191508051906020019060200280838360005b838110156105065780820151818401526020810190506104eb565b50505050905001868103825287818151815260200191508051906020019060200280838360005b8381101561054857808201518184015260208101905061052d565b505050509050019c5050505050505050505050505060405180910390f35b34801561057257600080fd5b5061076e600480360360a081101561058957600080fd5b810190808035906020019092919080359060200190929190803590602001906401000000008111156105ba57600080fd5b8201836020820111156105cc57600080fd5b803590602001918460018302840111640100000000831117156105ee57600080fd5b91908080601f016020809104026020016040519081016040528093929190818152602001838380828437600081840152601f19601f8201169050808301925050505050505091929192908035906020019064010000000081111561065157600080fd5b82018360208201111561066357600080fd5b8035906020019184600183028401116401000000008311171561068557600080fd5b91908080601f016020809104026020016040519081016040528093929190818152602001838380828437600081840152601f19601f820116905080830192505050505050509192919290803590602001906401000000008111156106e857600080fd5b8201836020820111156106fa57600080fd5b8035906020019184600183028401116401000000008311171561071c57600080fd5b91908080601f016020809104026020016040519081016040528093929190818152602001838380828437600081840152601f19601f820116905080830192505050505050509192919290505050610fe7565b005b34801561077c57600080fd5b506107b36004803603604081101561079357600080fd5b810190808035906020019092919080359060200190929190505050611117565b604051808581526020018481526020018060200180602001838103835285818151815260200191508051906020019080838360005b838110156108035780820151818401526020810190506107e8565b50505050905090810190601f1680156108305780820380516001836020036101000a031916815260200191505b50838103825284818151815260200191508051906020019080838360005b8381101561086957808201518184015260208101905061084e565b50505050905090810190601f1680156108965780820380516001836020036101000a031916815260200191505b50965050505050505060405180910390f35b3480156108b457600080fd5b506108bd6112c8565b6040518082815260200191505060405180910390f35b6000848460405160200180838152602001828152602001925050506040516020818303038152906040528051906020012090506001600082815260200190815260200160002060040182908060018154018082558091505090600182039060005260206000200160009091929091909150555060008383604051602001808381526020018281526020019250505060405160208183030381529060405280519060200120905060016000828152602001908152602001600020600501859080600181540180825580915050906001820390600052602060002001600090919290919091505550505050505050565b6001602052806000526040600020600091509050806000015490806001018054600181600116156101000203166002900480601f016020809104026020016040519081016040528092919081815260200182805460018160011615610100020316600290048015610a735780601f10610a4857610100808354040283529160200191610a73565b820191906000526020600020905b815481529060010190602001808311610a5657829003601f168201915b505050505090806002018054600181600116156101000203166002900480601f016020809104026020016040519081016040528092919081815260200182805460018160011615610100020316600290048015610b115780601f10610ae657610100808354040283529160200191610b11565b820191906000526020600020905b815481529060010190602001808311610af457829003601f168201915b505050505090806003018054600181600116156101000203166002900480601f016020809104026020016040519081016040528092919081815260200182805460018160011615610100020316600290048015610baf5780601f10610b8457610100808354040283529160200191610baf565b820191906000526020600020905b815481529060010190602001808311610b9257829003601f168201915b5050505050905084565b6060600083836040516020018083815260200182815260200192505050604051602081830303815290604052805190602001209050600160008281526020019081526020016000206003018054600181600116156101000203166002900480601f016020809104026020016040519081016040528092919081815260200182805460018160011615610100020316600290048015610c985780601f10610c6d57610100808354040283529160200191610c98565b820191906000526020600020905b815481529060010190602001808311610c7b57829003601f168201915b505050505091505092915050565b600080606080606080606060008989604051602001808381526020018281526020019250505060405160208183030381529060405280519060200120905089896001600084815260200190815260200160002060010160016000858152602001908152602001600020600201600160008681526020019081526020016000206003016001600087815260200190815260200160002060040160016000888152602001908152602001600020600501848054600181600116156101000203166002900480601f016020809104026020016040519081016040528092919081815260200182805460018160011615610100020316600290048015610de95780601f10610dbe57610100808354040283529160200191610de9565b820191906000526020600020905b815481529060010190602001808311610dcc57829003601f168201915b50505050509450838054600181600116156101000203166002900480601f016020809104026020016040519081016040528092919081815260200182805460018160011615610100020316600290048015610e855780601f10610e5a57610100808354040283529160200191610e85565b820191906000526020600020905b815481529060010190602001808311610e6857829003601f168201915b50505050509350828054600181600116156101000203166002900480601f016020809104026020016040519081016040528092919081815260200182805460018160011615610100020316600290048015610f215780601f10610ef657610100808354040283529160200191610f21565b820191906000526020600020905b815481529060010190602001808311610f0457829003601f168201915b5050505050925081805480602002602001604051908101604052809291908181526020018280548015610f7357602002820191906000526020600020905b815481526020019060010190808311610f5f575b5050505050915080805480602002602001604051908101604052809291908181526020018280548015610fc557602002820191906000526020600020905b815481526020019060010190808311610fb1575b5050505050905097509750975097509750975097505092959891949750929550565b600080815480929190600101919050555060608060008787604051602001808381526020018281526020019250505060405160208183030381529060405280519060200120905060c06040519081016040528082815260200187815260200186815260200185815260200184815260200183815250600160008381526020019081526020016000206000820151816000015560208201518160010190805190602001906110959291906112ce565b5060408201518160020190805190602001906110b29291906112ce565b5060608201518160030190805190602001906110cf9291906112ce565b5060808201518160040190805190602001906110ec92919061134e565b5060a082015181600501908051906020019061110992919061134e565b509050505050505050505050565b60008060608060008686604051602001808381526020018281526020019250505060405160208183030381529060405280519060200120905086866001600084815260200190815260200160002060010160016000858152602001908152602001600020600301818054600181600116156101000203166002900480601f0160208091040260200160405190810160405280929190818152602001828054600181600116156101000203166002900480156112135780601f106111e857610100808354040283529160200191611213565b820191906000526020600020905b8154815290600101906020018083116111f657829003601f168201915b50505050509150808054600181600116156101000203166002900480601f0160208091040260200160405190810160405280929190818152602001828054600181600116156101000203166002900480156112af5780601f10611284576101008083540402835291602001916112af565b820191906000526020600020905b81548152906001019060200180831161129257829003601f168201915b5050505050905094509450945094505092959194509250565b60005481565b828054600181600116156101000203166002900490600052602060002090601f016020900481019282601f1061130f57805160ff191683800117855561133d565b8280016001018555821561133d579182015b8281111561133c578251825591602001919060010190611321565b5b50905061134a919061139b565b5090565b82805482825590600052602060002090810192821561138a579160200282015b8281111561138957825182559160200191906001019061136e565b5b50905061139791906113c0565b5090565b6113bd91905b808211156113b95760008160009055506001016113a1565b5090565b90565b6113e291905b808211156113de5760008160009055506001016113c6565b5090565b9056fea165627a7a723058205f023f210a23923ff160e4264113a25205f6c6eea080a745376ad478ecbd43690029",
  "source": "pragma solidity 0.5.0;\n\ncontract Gallery {\n  // counter\n  uint public artworksCount;\n\n  struct Artwork {\n    bytes32 hashValue;\n    string name;\n    string caption;\n    string access;\n    bytes32[] sources;\n    bytes32[] derivatives;\n  }\n\n  // a hash table mapping hash(author_id, image_id) to Artwork\n  mapping(bytes32 => Artwork) public gallery;\n\n  constructor() public {\n    addArtwork(\"5ca5ec2fa5ef65243d180a72\", \"5cb20936f39f6a2b77219a3a\", \"kitten2\", \"cute cat from my home\", \"https://res.cloudinary.com/fyp18003/image/upload/v1554541663/artworks/kitten2.jpg\");\n    addArtwork(\"5ca9661f13bcf80e71fb3453\", \"5cb209e8f39f6a2b77219a3c\", \"Boxer\", \"funny dog from my neighbor\", \"https://res.cloudinary.com/fyp18003/image/upload/v1554541663/artworks/boxer.jpg\");\n    addArtwork(\"5ca9661f13bcf80e71fb3453\", \"\", \"golden-retriever\", \"gold dog\", \"https://res.cloudinary.com/fyp18003/image/upload/v1554541663/artworks/golden-retriever.jpg\");\n    addArtwork(\"5ca9661f13bcf80e71fb3453\", \"5cb20a21f39f6a2b77219a3d\", \"golden-retriever\", \"gold dog\", \"https://res.cloudinary.com/fyp18003/image/upload/v1554541663/artworks/golden-retriever.jpg\");\n    addArtwork(\"5ca5ec2fa5ef65243d180a72\", \"5cb2097df39f6a2b77219a3b\", \"kitten3\", \"unique one \", \"https://res.cloudinary.com/fyp18003/image/upload/v1554541663/artworks/kitten3.jpg\");\n    addSource(\"5ca9661f13bcf80e71fb3453\", \"5cb209e8f39f6a2b77219a3c\", \"5ca5ec2fa5ef65243d180a72\",  \"5cb20936f39f6a2b77219a3a\");\n  }\n\n  function addArtwork (bytes32 author_id, bytes32 image_id, string memory _name, string memory caption, string memory access) public {\n    artworksCount ++;\n    bytes32[] memory s;\n    bytes32[] memory d;\n    bytes32 hashV = keccak256(abi.encodePacked(author_id, image_id));\n    gallery[hashV] = Artwork(hashV, _name, caption, access, s, d);\n  }\n  function retrieveArtwork (bytes32 author_id, bytes32 image_id) public returns(bytes32, bytes32, string memory, string memory) {\n      bytes32 hashV = keccak256(abi.encodePacked(author_id, image_id));\n      return (author_id, image_id, gallery[hashV].name, gallery[hashV].access);\n    }\n\n  function retrieveArtworkInfo (bytes32 author_id, bytes32 image_id) public returns(bytes32, bytes32, string memory, string memory, string memory, bytes32[] memory, bytes32[] memory) {\n    bytes32 hashV = keccak256(abi.encodePacked(author_id, image_id));\n    return (author_id, image_id, gallery[hashV].name, gallery[hashV].caption, gallery[hashV].access, gallery[hashV].sources, gallery[hashV].derivatives);\n  }\n\n  function retrieveArtworkAccess (bytes32 author_id, bytes32 image_id) public returns(string memory) {\n    bytes32 hashV = keccak256(abi.encodePacked(author_id, image_id));\n    return (gallery[hashV].access);\n  }\n\n\n  function addSource (bytes32 author_id, bytes32 image_id, bytes32 source_aid, bytes32 source_iid ) public {\n    bytes32 hashV = keccak256(abi.encodePacked(author_id, image_id));\n    gallery[hashV].sources.push(source_iid);\n    bytes32 source_hashV = keccak256(abi.encodePacked(source_aid, source_iid));\n    gallery[source_hashV].derivatives.push(image_id);\n  }\n\n}\n",
  "sourcePath": "/Users/Alex/Documents/GitHub/FYP-demo/decentral_app/contracts/Gallery.sol",
  "compiler": {
    "name": "solc",
    "version": "0.5.0+commit.1d4f565a.Emscripten.clang"
  },
  "schemaVersion": "3.0.1",
  "updatedAt": "2019-04-16T12:32:01.932Z",
  "devdoc": {
    "methods": {}
  },
  "userdoc": {
    "methods": {}
  }
}