{
  "contractName": "Gallery",
  "abi": [
    {
      "constant": true,
      "inputs": [
        {
          "name": "",
          "type": "bytes32"
        }
      ],
      "name": "gallery",
      "outputs": [
        {
          "name": "hashValue",
          "type": "bytes32"
        },
        {
          "name": "name",
          "type": "string"
        },
        {
          "name": "caption",
          "type": "string"
        },
        {
          "name": "access",
          "type": "string"
        }
      ],
      "payable": false,
      "stateMutability": "view",
      "type": "function",
      "signature": "0x360e09f0"
    },
    {
      "constant": true,
      "inputs": [],
      "name": "artworksCount",
      "outputs": [
        {
          "name": "",
          "type": "uint256"
        }
      ],
      "payable": false,
      "stateMutability": "view",
      "type": "function",
      "signature": "0xc2a8dc7e"
    },
    {
      "inputs": [],
      "payable": false,
      "stateMutability": "nonpayable",
      "type": "constructor",
      "signature": "constructor"
    },
    {
      "constant": false,
      "inputs": [
        {
          "name": "user_id",
          "type": "bytes32"
        },
        {
          "name": "image_id",
          "type": "bytes32"
        },
        {
          "name": "_name",
          "type": "string"
        },
        {
          "name": "caption",
          "type": "string"
        },
        {
          "name": "access",
          "type": "string"
        }
      ],
      "name": "addArtwork",
      "outputs": [],
      "payable": false,
      "stateMutability": "nonpayable",
      "type": "function",
      "signature": "0xb78826c1"
    },
    {
      "constant": false,
      "inputs": [
        {
          "name": "u_id",
          "type": "bytes32"
        },
        {
          "name": "i_id",
          "type": "bytes32"
        }
      ],
      "name": "retrieveArtwork",
      "outputs": [
        {
          "name": "",
          "type": "bytes32"
        },
        {
          "name": "",
          "type": "bytes32"
        },
        {
          "name": "",
          "type": "string"
        },
        {
          "name": "",
          "type": "string"
        }
      ],
      "payable": false,
      "stateMutability": "nonpayable",
      "type": "function",
      "signature": "0xb915f551"
    },
    {
      "constant": false,
      "inputs": [
        {
          "name": "u_id",
          "type": "bytes32"
        },
        {
          "name": "i_id",
          "type": "bytes32"
        }
      ],
      "name": "retrieveArtworkInfo",
      "outputs": [
        {
          "name": "",
          "type": "bytes32"
        },
        {
          "name": "",
          "type": "bytes32"
        },
        {
          "name": "",
          "type": "string"
        },
        {
          "name": "",
          "type": "string"
        },
        {
          "name": "",
          "type": "string"
        },
        {
          "name": "",
          "type": "bytes32[]"
        },
        {
          "name": "",
          "type": "bytes32[]"
        }
      ],
      "payable": false,
      "stateMutability": "nonpayable",
      "type": "function",
      "signature": "0x5eb92870"
    },
    {
      "constant": false,
      "inputs": [
        {
          "name": "u_id",
          "type": "bytes32"
        },
        {
          "name": "i_id",
          "type": "bytes32"
        }
      ],
      "name": "retrieveArtworkAccess",
      "outputs": [
        {
          "name": "",
          "type": "string"
        }
      ],
      "payable": false,
      "stateMutability": "nonpayable",
      "type": "function",
      "signature": "0x5944c171"
    },
    {
      "constant": false,
      "inputs": [
        {
          "name": "u_id",
          "type": "bytes32"
        },
        {
          "name": "i_id",
          "type": "bytes32"
        },
        {
          "name": "s_id",
          "type": "bytes32"
        }
      ],
      "name": "addSources",
      "outputs": [],
      "payable": false,
      "stateMutability": "nonpayable",
      "type": "function",
      "signature": "0x8979011b"
    },
    {
      "constant": false,
      "inputs": [
        {
          "name": "u_id",
          "type": "bytes32"
        },
        {
          "name": "i_id",
          "type": "bytes32"
        },
        {
          "name": "s_id",
          "type": "bytes32"
        }
      ],
      "name": "addSource",
      "outputs": [],
      "payable": false,
      "stateMutability": "nonpayable",
      "type": "function",
      "signature": "0xf9f64b87"
    },
    {
      "constant": false,
      "inputs": [
        {
          "name": "u_id",
          "type": "bytes32"
        },
        {
          "name": "i_id",
          "type": "bytes32"
        },
        {
          "name": "d_id",
          "type": "bytes32"
        }
      ],
      "name": "addDerivative",
      "outputs": [],
      "payable": false,
      "stateMutability": "nonpayable",
      "type": "function",
      "signature": "0xdf378e63"
    }
  ],
  "bytecode": "0x60806040523480156200001157600080fd5b506200015c7f35636135656331346135656636353234336431383061373100000000000000007f35636135656638323138343564373234386539363135666300000000000000006040805190810160405280600781526020017f6b697474656e32000000000000000000000000000000000000000000000000008152506040805190810160405280601581526020017f63757465206361742066726f6d206d7920686f6d650000000000000000000000815250608060405190810160405280605181526020017f68747470733a2f2f7265732e636c6f7564696e6172792e636f6d2f667970313881526020017f3030332f696d6167652f75706c6f61642f76313535343534313636332f61727481526020017f776f726b732f6b697474656e322e6a706700000000000000000000000000000081525062000540640100000000026401000000009004565b620002a67f35636135656332666135656636353234336431383061373200000000000000007f35636135663265333363656563323234633931396637656400000000000000006040805190810160405280600581526020017f426f7865720000000000000000000000000000000000000000000000000000008152506040805190810160405280601a81526020017f66756e6e7920646f672066726f6d206d79206e65696768626f72000000000000815250608060405190810160405280604f81526020017f68747470733a2f2f7265732e636c6f7564696e6172792e636f6d2f667970313881526020017f3030332f696d6167652f75706c6f61642f76313535343534313636332f61727481526020017f776f726b732f626f7865722e6a7067000000000000000000000000000000000081525062000540640100000000026401000000009004565b620003f07f35636135656332666135656636353234336431383061373200000000000000007f35636135663331303363656563323234633931396637656500000000000000006040805190810160405280601081526020017f676f6c64656e2d726574726965766572000000000000000000000000000000008152506040805190810160405280600881526020017f676f6c6420646f67000000000000000000000000000000000000000000000000815250608060405190810160405280605a81526020017f68747470733a2f2f7265732e636c6f7564696e6172792e636f6d2f667970313881526020017f3030332f696d6167652f75706c6f61642f76313535343534313636332f61727481526020017f776f726b732f676f6c64656e2d7265747269657665722e6a706700000000000081525062000540640100000000026401000000009004565b6200053a7f35636135656332666135656636353234336431383061373200000000000000007f35636135663535323732353935633234646466386133356300000000000000006040805190810160405280600781526020017f6b697474656e33000000000000000000000000000000000000000000000000008152506040805190810160405280600b81526020017f756e69717565206f6e6520000000000000000000000000000000000000000000815250608060405190810160405280605181526020017f68747470733a2f2f7265732e636c6f7564696e6172792e636f6d2f667970313881526020017f3030332f696d6167652f75706c6f61642f76313535343534313636332f61727481526020017f776f726b732f6b697474656e332e6a706700000000000000000000000000000081525062000540640100000000026401000000009004565b620007a3565b600080815480929190600101919050555060608060008787604051602001808381526020018281526020019250505060405160208183030381529060405280519060200120905060c0604051908101604052808281526020018781526020018681526020018581526020018481526020018381525060016000838152602001908152602001600020600082015181600001556020820151816001019080519060200190620005f09291906200067a565b5060408201518160020190805190602001906200060f9291906200067a565b5060608201518160030190805190602001906200062e9291906200067a565b5060808201518160040190805190602001906200064d92919062000701565b5060a08201518160050190805190602001906200066c92919062000701565b509050505050505050505050565b828054600181600116156101000203166002900490600052602060002090601f016020900481019282601f10620006bd57805160ff1916838001178555620006ee565b82800160010185558215620006ee579182015b82811115620006ed578251825591602001919060010190620006d0565b5b509050620006fd919062000753565b5090565b82805482825590600052602060002090810192821562000740579160200282015b828111156200073f57825182559160200191906001019062000722565b5b5090506200074f91906200077b565b5090565b6200077891905b80821115620007745760008160009055506001016200075a565b5090565b90565b620007a091905b808211156200079c57600081600090555060010162000782565b5090565b90565b6115aa80620007b36000396000f3fe608060405260043610610099576000357c0100000000000000000000000000000000000000000000000000000000900463ffffffff168063360e09f01461009e5780635944c171146102315780635eb92870146102ef5780638979011b14610523578063b78826c114610572578063b915f5511461077c578063c2a8dc7e146108b4578063df378e63146108df578063f9f64b871461092e575b600080fd5b3480156100aa57600080fd5b506100d7600480360360208110156100c157600080fd5b810190808035906020019092919050505061097d565b60405180858152602001806020018060200180602001848103845287818151815260200191508051906020019080838360005b8381101561012557808201518184015260208101905061010a565b50505050905090810190601f1680156101525780820380516001836020036101000a031916815260200191505b50848103835286818151815260200191508051906020019080838360005b8381101561018b578082015181840152602081019050610170565b50505050905090810190601f1680156101b85780820380516001836020036101000a031916815260200191505b50848103825285818151815260200191508051906020019080838360005b838110156101f15780820151818401526020810190506101d6565b50505050905090810190601f16801561021e5780820380516001836020036101000a031916815260200191505b5097505050505050505060405180910390f35b34801561023d57600080fd5b506102746004803603604081101561025457600080fd5b810190808035906020019092919080359060200190929190505050610b75565b6040518080602001828103825283818151815260200191508051906020019080838360005b838110156102b4578082015181840152602081019050610299565b50505050905090810190601f1680156102e15780820380516001836020036101000a031916815260200191505b509250505060405180910390f35b3480156102fb57600080fd5b506103326004803603604081101561031257600080fd5b810190808035906020019092919080359060200190929190505050610c62565b60405180888152602001878152602001806020018060200180602001806020018060200186810386528b818151815260200191508051906020019080838360005b8381101561038e578082015181840152602081019050610373565b50505050905090810190601f1680156103bb5780820380516001836020036101000a031916815260200191505b5086810385528a818151815260200191508051906020019080838360005b838110156103f45780820151818401526020810190506103d9565b50505050905090810190601f1680156104215780820380516001836020036101000a031916815260200191505b50868103845289818151815260200191508051906020019080838360005b8381101561045a57808201518184015260208101905061043f565b50505050905090810190601f1680156104875780820380516001836020036101000a031916815260200191505b50868103835288818151815260200191508051906020019060200280838360005b838110156104c35780820151818401526020810190506104a8565b50505050905001868103825287818151815260200191508051906020019060200280838360005b838110156105055780820151818401526020810190506104ea565b505050509050019c5050505050505050505050505060405180910390f35b34801561052f57600080fd5b506105706004803603606081101561054657600080fd5b81019080803590602001909291908035906020019092919080359060200190929190505050610fa3565b005b34801561057e57600080fd5b5061077a600480360360a081101561059557600080fd5b810190808035906020019092919080359060200190929190803590602001906401000000008111156105c657600080fd5b8201836020820111156105d857600080fd5b803590602001918460018302840111640100000000831117156105fa57600080fd5b91908080601f016020809104026020016040519081016040528093929190818152602001838380828437600081840152601f19601f8201169050808301925050505050505091929192908035906020019064010000000081111561065d57600080fd5b82018360208201111561066f57600080fd5b8035906020019184600183028401116401000000008311171561069157600080fd5b91908080601f016020809104026020016040519081016040528093929190818152602001838380828437600081840152601f19601f820116905080830192505050505050509192919290803590602001906401000000008111156106f457600080fd5b82018360208201111561070657600080fd5b8035906020019184600183028401116401000000008311171561072857600080fd5b91908080601f016020809104026020016040519081016040528093929190818152602001838380828437600081840152601f19601f82011690508083019250505050505050919291929050505061108e565b005b34801561078857600080fd5b506107bf6004803603604081101561079f57600080fd5b8101908080359060200190929190803590602001909291905050506111be565b604051808581526020018481526020018060200180602001838103835285818151815260200191508051906020019080838360005b8381101561080f5780820151818401526020810190506107f4565b50505050905090810190601f16801561083c5780820380516001836020036101000a031916815260200191505b50838103825284818151815260200191508051906020019080838360005b8381101561087557808201518184015260208101905061085a565b50505050905090810190601f1680156108a25780820380516001836020036101000a031916815260200191505b50965050505050505060405180910390f35b3480156108c057600080fd5b506108c961136f565b6040518082815260200191505060405180910390f35b3480156108eb57600080fd5b5061092c6004803603606081101561090257600080fd5b81019080803590602001909291908035906020019092919080359060200190929190505050611375565b005b34801561093a57600080fd5b5061097b6004803603606081101561095157600080fd5b810190808035906020019092919080359060200190929190803590602001909291905050506113ee565b005b6001602052806000526040600020600091509050806000015490806001018054600181600116156101000203166002900480601f016020809104026020016040519081016040528092919081815260200182805460018160011615610100020316600290048015610a2f5780601f10610a0457610100808354040283529160200191610a2f565b820191906000526020600020905b815481529060010190602001808311610a1257829003601f168201915b505050505090806002018054600181600116156101000203166002900480601f016020809104026020016040519081016040528092919081815260200182805460018160011615610100020316600290048015610acd5780601f10610aa257610100808354040283529160200191610acd565b820191906000526020600020905b815481529060010190602001808311610ab057829003601f168201915b505050505090806003018054600181600116156101000203166002900480601f016020809104026020016040519081016040528092919081815260200182805460018160011615610100020316600290048015610b6b5780601f10610b4057610100808354040283529160200191610b6b565b820191906000526020600020905b815481529060010190602001808311610b4e57829003601f168201915b5050505050905084565b6060600083836040516020018083815260200182815260200192505050604051602081830303815290604052805190602001209050600160008281526020019081526020016000206003018054600181600116156101000203166002900480601f016020809104026020016040519081016040528092919081815260200182805460018160011615610100020316600290048015610c545780601f10610c2957610100808354040283529160200191610c54565b820191906000526020600020905b815481529060010190602001808311610c3757829003601f168201915b505050505091505092915050565b600080606080606080606060008989604051602001808381526020018281526020019250505060405160208183030381529060405280519060200120905089896001600084815260200190815260200160002060010160016000858152602001908152602001600020600201600160008681526020019081526020016000206003016001600087815260200190815260200160002060040160016000888152602001908152602001600020600501848054600181600116156101000203166002900480601f016020809104026020016040519081016040528092919081815260200182805460018160011615610100020316600290048015610da55780601f10610d7a57610100808354040283529160200191610da5565b820191906000526020600020905b815481529060010190602001808311610d8857829003601f168201915b50505050509450838054600181600116156101000203166002900480601f016020809104026020016040519081016040528092919081815260200182805460018160011615610100020316600290048015610e415780601f10610e1657610100808354040283529160200191610e41565b820191906000526020600020905b815481529060010190602001808311610e2457829003601f168201915b50505050509350828054600181600116156101000203166002900480601f016020809104026020016040519081016040528092919081815260200182805460018160011615610100020316600290048015610edd5780601f10610eb257610100808354040283529160200191610edd565b820191906000526020600020905b815481529060010190602001808311610ec057829003601f168201915b5050505050925081805480602002602001604051908101604052809291908181526020018280548015610f2f57602002820191906000526020600020905b815481526020019060010190808311610f1b575b5050505050915080805480602002602001604051908101604052809291908181526020018280548015610f8157602002820191906000526020600020905b815481526020019060010190808311610f6d575b5050505050905097509750975097509750975097505092959891949750929550565b60008383604051602001808381526020018281526020019250505060405160208183030381529060405280519060200120905060008090505b602060ff168110156110875760016000838152602001908152602001600020600401838260208110151561100c57fe5b1a7f010000000000000000000000000000000000000000000000000000000000000002908060018154018082558091505090600182039060005260206000200160009091927effffffffffffffffffffffffffffffffffffffffffffffffffffffffffffff1916909190915055508080600101915050610fdc565b5050505050565b600080815480929190600101919050555060608060008787604051602001808381526020018281526020019250505060405160208183030381529060405280519060200120905060c060405190810160405280828152602001878152602001868152602001858152602001848152602001838152506001600083815260200190815260200160002060008201518160000155602082015181600101908051906020019061113c929190611467565b506040820151816002019080519060200190611159929190611467565b506060820151816003019080519060200190611176929190611467565b5060808201518160040190805190602001906111939291906114e7565b5060a08201518160050190805190602001906111b09291906114e7565b509050505050505050505050565b60008060608060008686604051602001808381526020018281526020019250505060405160208183030381529060405280519060200120905086866001600084815260200190815260200160002060010160016000858152602001908152602001600020600301818054600181600116156101000203166002900480601f0160208091040260200160405190810160405280929190818152602001828054600181600116156101000203166002900480156112ba5780601f1061128f576101008083540402835291602001916112ba565b820191906000526020600020905b81548152906001019060200180831161129d57829003601f168201915b50505050509150808054600181600116156101000203166002900480601f0160208091040260200160405190810160405280929190818152602001828054600181600116156101000203166002900480156113565780601f1061132b57610100808354040283529160200191611356565b820191906000526020600020905b81548152906001019060200180831161133957829003601f168201915b5050505050905094509450945094505092959194509250565b60005481565b6000838360405160200180838152602001828152602001925050506040516020818303038152906040528051906020012090506001600082815260200190815260200160002060050182908060018154018082558091505090600182039060005260206000200160009091929091909150555050505050565b6000838360405160200180838152602001828152602001925050506040516020818303038152906040528051906020012090506001600082815260200190815260200160002060040182908060018154018082558091505090600182039060005260206000200160009091929091909150555050505050565b828054600181600116156101000203166002900490600052602060002090601f016020900481019282601f106114a857805160ff19168380011785556114d6565b828001600101855582156114d6579182015b828111156114d55782518255916020019190600101906114ba565b5b5090506114e39190611534565b5090565b828054828255906000526020600020908101928215611523579160200282015b82811115611522578251825591602001919060010190611507565b5b5090506115309190611559565b5090565b61155691905b8082111561155257600081600090555060010161153a565b5090565b90565b61157b91905b8082111561157757600081600090555060010161155f565b5090565b9056fea165627a7a72305820d992f6bc2d8ed9062aaf951abae7a83aca9f642c24fa04fb134f4f0e1a16390f0029",
  "source": "pragma solidity 0.5.0;\n\ncontract Gallery {\n  // counter\n  uint public artworksCount;\n\n  struct Artwork {\n    bytes32 hashValue;\n    string name;\n    string caption;\n    string access;\n    bytes32[] source;\n    bytes32[] derivative;\n  }\n\n  // Read/write Artwork\n  // a hash table mapping hash(user_id, image_id) to Artwork\n  mapping(bytes32 => Artwork) public gallery;\n\n\n  constructor() public {\n    //Data for contract to be in sync with Mongo\n    addArtwork(\"5ca5ec14a5ef65243d180a71\", \"5ca5ef821845d7248e9615fc\", \"kitten2\", \"cute cat from my home\", \"https://res.cloudinary.com/fyp18003/image/upload/v1554541663/artworks/kitten2.jpg\");\n    addArtwork(\"5ca5ec2fa5ef65243d180a72\", \"5ca5f2e33ceec224c919f7ed\", \"Boxer\", \"funny dog from my neighbor\", \"https://res.cloudinary.com/fyp18003/image/upload/v1554541663/artworks/boxer.jpg\");\n    addArtwork(\"5ca5ec2fa5ef65243d180a72\", \"5ca5f3103ceec224c919f7ee\", \"golden-retriever\", \"gold dog\", \"https://res.cloudinary.com/fyp18003/image/upload/v1554541663/artworks/golden-retriever.jpg\");\n    addArtwork(\"5ca5ec2fa5ef65243d180a72\", \"5ca5f55272595c24ddf8a35c\", \"kitten3\", \"unique one \", \"https://res.cloudinary.com/fyp18003/image/upload/v1554541663/artworks/kitten3.jpg\");\n    /* addSource(\"5ca5ec14a5ef65243d180a71\", \"5ca5ef821845d7248e9615fc\", \"5ca5f55272595c24ddf8a35c\");\n    addSource(\"5ca5ec14a5ef65243d180a71\", \"5ca5ef821845d7248e9615fc\", \"5ca5f3103ceec224c919f7ee\");\n    addSource(\"5ca5ec14a5ef65243d180a71\", \"5ca5ef821845d7248e9615fc\", \"5ca5f2e33ceec224c919f7ed\"); */\n  }\n\n  function addArtwork (bytes32 user_id, bytes32 image_id, string memory _name, string memory caption, string memory access) public {\n    artworksCount ++;\n    bytes32[] memory p;\n    bytes32[] memory f;\n    bytes32 hashV = keccak256(abi.encodePacked(user_id, image_id));\n    gallery[hashV] = Artwork(hashV, _name, caption, access, p, f);\n  }\n\n  function retrieveArtwork (bytes32 u_id, bytes32 i_id) public returns(bytes32, bytes32, string memory, string memory) {\n    bytes32 hashV = keccak256(abi.encodePacked(u_id, i_id));\n    return (u_id, i_id, gallery[hashV].name, gallery[hashV].access);\n  }\n\n  function retrieveArtworkInfo (bytes32 u_id, bytes32 i_id) public returns(bytes32, bytes32, string memory, string memory, string memory, bytes32[] memory, bytes32[] memory) {\n    bytes32 hashV = keccak256(abi.encodePacked(u_id, i_id));\n    return (u_id, i_id, gallery[hashV].name, gallery[hashV].caption, gallery[hashV].access, gallery[hashV].source, gallery[hashV].derivative);\n  }\n\n  function retrieveArtworkAccess (bytes32 u_id, bytes32 i_id) public returns(string memory) {\n    bytes32 hashV = keccak256(abi.encodePacked(u_id, i_id));\n    return (gallery[hashV].access);\n  }\n\n  function addSources (bytes32 u_id, bytes32 i_id, bytes32 s_id) public {\n    bytes32 hashV = keccak256(abi.encodePacked(u_id, i_id));\n    for (uint i=0; i<s_id.length; i++) {\n      gallery[hashV].source.push(s_id[i]);\n    }\n  }\n\n  function addSource (bytes32 u_id, bytes32 i_id, bytes32 s_id) public {\n    bytes32 hashV = keccak256(abi.encodePacked(u_id, i_id));\n    gallery[hashV].source.push(s_id);\n  }\n\n  function addDerivative (bytes32 u_id, bytes32 i_id, bytes32 d_id) public {\n    bytes32 hashV = keccak256(abi.encodePacked(u_id, i_id));\n    gallery[hashV].derivative.push(d_id);\n  }\n\n/*\n  function retrieveSource (string memory user_id, string memory image_id) public returns(uint[] memory source){\n    bytes32 hashV = keccak256(abi.encodePacked(user_id, image_id));\n    return gallery[hashV].source;\n  }\n\n  function addDerivative (string memory user_id, string memory image_id, uint der_id) public {\n    bytes32 hashV = keccak256(abi.encodePacked(user_id, image_id));\n    gallery[hashV].derivative.push(der_id);\n  }\n\n  function retrieveDerivative (string memory user_id, string memory image_id) public returns (uint[] memory derivative) {\n    bytes32 hashV = keccak256(abi.encodePacked(user_id, image_id));\n    return gallery[hashV].derivative;\n  } */\n\n\n\n}\n",
  "sourcePath": "/Users/VanessaY/Codes/FYPdemo/decentral_app/contracts/Gallery.sol",
  "compiler": {
    "name": "solc",
    "version": "0.5.0+commit.1d4f565a.Emscripten.clang"
  },
  "schemaVersion": "3.0.2",
  "updatedAt": "2019-04-13T09:42:11.525Z",
  "devdoc": {
    "methods": {}
  },
  "userdoc": {
    "methods": {}
  }
}